{
  "contractName": "ContractMachineTemplate",
  "abi": [
    {
      "inputs": [
        {
          "internalType": "string",
          "name": "_name",
          "type": "string"
        },
        {
          "internalType": "string",
          "name": "_symbol",
          "type": "string"
        },
        {
          "internalType": "string",
          "name": "_initBaseURI",
          "type": "string"
        }
      ],
      "stateMutability": "nonpayable",
      "type": "constructor"
    },
    {
      "anonymous": false,
      "inputs": [
        {
          "indexed": true,
          "internalType": "address",
          "name": "owner",
          "type": "address"
        },
        {
          "indexed": true,
          "internalType": "address",
          "name": "approved",
          "type": "address"
        },
        {
          "indexed": true,
          "internalType": "uint256",
          "name": "tokenId",
          "type": "uint256"
        }
      ],
      "name": "Approval",
      "type": "event"
    },
    {
      "anonymous": false,
      "inputs": [
        {
          "indexed": true,
          "internalType": "address",
          "name": "owner",
          "type": "address"
        },
        {
          "indexed": true,
          "internalType": "address",
          "name": "operator",
          "type": "address"
        },
        {
          "indexed": false,
          "internalType": "bool",
          "name": "approved",
          "type": "bool"
        }
      ],
      "name": "ApprovalForAll",
      "type": "event"
    },
    {
      "anonymous": false,
      "inputs": [
        {
          "indexed": true,
          "internalType": "address",
          "name": "previousOwner",
          "type": "address"
        },
        {
          "indexed": true,
          "internalType": "address",
          "name": "newOwner",
          "type": "address"
        }
      ],
      "name": "OwnershipTransferred",
      "type": "event"
    },
    {
      "anonymous": false,
      "inputs": [
        {
          "indexed": true,
          "internalType": "address",
          "name": "from",
          "type": "address"
        },
        {
          "indexed": true,
          "internalType": "address",
          "name": "to",
          "type": "address"
        },
        {
          "indexed": true,
          "internalType": "uint256",
          "name": "tokenId",
          "type": "uint256"
        }
      ],
      "name": "Transfer",
      "type": "event"
    },
    {
      "inputs": [
        {
          "internalType": "address",
          "name": "to",
          "type": "address"
        },
        {
          "internalType": "uint256",
          "name": "tokenId",
          "type": "uint256"
        }
      ],
      "name": "approve",
      "outputs": [],
      "stateMutability": "nonpayable",
      "type": "function"
    },
    {
      "inputs": [
        {
          "internalType": "address",
          "name": "owner",
          "type": "address"
        }
      ],
      "name": "balanceOf",
      "outputs": [
        {
          "internalType": "uint256",
          "name": "",
          "type": "uint256"
        }
      ],
      "stateMutability": "view",
      "type": "function",
      "constant": true
    },
    {
      "inputs": [],
      "name": "baseExtension",
      "outputs": [
        {
          "internalType": "string",
          "name": "",
          "type": "string"
        }
      ],
      "stateMutability": "view",
      "type": "function",
      "constant": true
    },
    {
      "inputs": [],
      "name": "baseURI",
      "outputs": [
        {
          "internalType": "string",
          "name": "",
          "type": "string"
        }
      ],
      "stateMutability": "view",
      "type": "function",
      "constant": true
    },
    {
      "inputs": [],
      "name": "cost",
      "outputs": [
        {
          "internalType": "uint256",
          "name": "",
          "type": "uint256"
        }
      ],
      "stateMutability": "view",
      "type": "function",
      "constant": true
    },
    {
      "inputs": [
        {
          "internalType": "uint256",
          "name": "tokenId",
          "type": "uint256"
        }
      ],
      "name": "getApproved",
      "outputs": [
        {
          "internalType": "address",
          "name": "",
          "type": "address"
        }
      ],
      "stateMutability": "view",
      "type": "function",
      "constant": true
    },
    {
      "inputs": [
        {
          "internalType": "address",
          "name": "owner",
          "type": "address"
        },
        {
          "internalType": "address",
          "name": "operator",
          "type": "address"
        }
      ],
      "name": "isApprovedForAll",
      "outputs": [
        {
          "internalType": "bool",
          "name": "",
          "type": "bool"
        }
      ],
      "stateMutability": "view",
      "type": "function",
      "constant": true
    },
    {
      "inputs": [],
      "name": "maxMintAmount",
      "outputs": [
        {
          "internalType": "uint256",
          "name": "",
          "type": "uint256"
        }
      ],
      "stateMutability": "view",
      "type": "function",
      "constant": true
    },
    {
      "inputs": [],
      "name": "maxSupply",
      "outputs": [
        {
          "internalType": "uint256",
          "name": "",
          "type": "uint256"
        }
      ],
      "stateMutability": "view",
      "type": "function",
      "constant": true
    },
    {
      "inputs": [],
      "name": "maxWLMintAmount",
      "outputs": [
        {
          "internalType": "uint256",
          "name": "",
          "type": "uint256"
        }
      ],
      "stateMutability": "view",
      "type": "function",
      "constant": true
    },
    {
      "inputs": [],
      "name": "name",
      "outputs": [
        {
          "internalType": "string",
          "name": "",
          "type": "string"
        }
      ],
      "stateMutability": "view",
      "type": "function",
      "constant": true
    },
    {
      "inputs": [],
      "name": "owner",
      "outputs": [
        {
          "internalType": "address",
          "name": "",
          "type": "address"
        }
      ],
      "stateMutability": "view",
      "type": "function",
      "constant": true
    },
    {
      "inputs": [
        {
          "internalType": "uint256",
          "name": "tokenId",
          "type": "uint256"
        }
      ],
      "name": "ownerOf",
      "outputs": [
        {
          "internalType": "address",
          "name": "",
          "type": "address"
        }
      ],
      "stateMutability": "view",
      "type": "function",
      "constant": true
    },
    {
      "inputs": [],
      "name": "paused",
      "outputs": [
        {
          "internalType": "bool",
          "name": "",
          "type": "bool"
        }
      ],
      "stateMutability": "view",
      "type": "function",
      "constant": true
    },
    {
      "inputs": [],
      "name": "renounceOwnership",
      "outputs": [],
      "stateMutability": "nonpayable",
      "type": "function"
    },
    {
      "inputs": [
        {
          "internalType": "address",
          "name": "from",
          "type": "address"
        },
        {
          "internalType": "address",
          "name": "to",
          "type": "address"
        },
        {
          "internalType": "uint256",
          "name": "tokenId",
          "type": "uint256"
        }
      ],
      "name": "safeTransferFrom",
      "outputs": [],
      "stateMutability": "nonpayable",
      "type": "function"
    },
    {
      "inputs": [
        {
          "internalType": "address",
          "name": "from",
          "type": "address"
        },
        {
          "internalType": "address",
          "name": "to",
          "type": "address"
        },
        {
          "internalType": "uint256",
          "name": "tokenId",
          "type": "uint256"
        },
        {
          "internalType": "bytes",
          "name": "_data",
          "type": "bytes"
        }
      ],
      "name": "safeTransferFrom",
      "outputs": [],
      "stateMutability": "nonpayable",
      "type": "function"
    },
    {
      "inputs": [
        {
          "internalType": "address",
          "name": "operator",
          "type": "address"
        },
        {
          "internalType": "bool",
          "name": "approved",
          "type": "bool"
        }
      ],
      "name": "setApprovalForAll",
      "outputs": [],
      "stateMutability": "nonpayable",
      "type": "function"
    },
    {
      "inputs": [
        {
          "internalType": "bytes4",
          "name": "interfaceId",
          "type": "bytes4"
        }
      ],
      "name": "supportsInterface",
      "outputs": [
        {
          "internalType": "bool",
          "name": "",
          "type": "bool"
        }
      ],
      "stateMutability": "view",
      "type": "function",
      "constant": true
    },
    {
      "inputs": [],
      "name": "symbol",
      "outputs": [
        {
          "internalType": "string",
          "name": "",
          "type": "string"
        }
      ],
      "stateMutability": "view",
      "type": "function",
      "constant": true
    },
    {
      "inputs": [
        {
          "internalType": "uint256",
          "name": "index",
          "type": "uint256"
        }
      ],
      "name": "tokenByIndex",
      "outputs": [
        {
          "internalType": "uint256",
          "name": "",
          "type": "uint256"
        }
      ],
      "stateMutability": "view",
      "type": "function",
      "constant": true
    },
    {
      "inputs": [
        {
          "internalType": "address",
          "name": "owner",
          "type": "address"
        },
        {
          "internalType": "uint256",
          "name": "index",
          "type": "uint256"
        }
      ],
      "name": "tokenOfOwnerByIndex",
      "outputs": [
        {
          "internalType": "uint256",
          "name": "",
          "type": "uint256"
        }
      ],
      "stateMutability": "view",
      "type": "function",
      "constant": true
    },
    {
      "inputs": [],
      "name": "totalSupply",
      "outputs": [
        {
          "internalType": "uint256",
          "name": "",
          "type": "uint256"
        }
      ],
      "stateMutability": "view",
      "type": "function",
      "constant": true
    },
    {
      "inputs": [
        {
          "internalType": "address",
          "name": "from",
          "type": "address"
        },
        {
          "internalType": "address",
          "name": "to",
          "type": "address"
        },
        {
          "internalType": "uint256",
          "name": "tokenId",
          "type": "uint256"
        }
      ],
      "name": "transferFrom",
      "outputs": [],
      "stateMutability": "nonpayable",
      "type": "function"
    },
    {
      "inputs": [
        {
          "internalType": "address",
          "name": "newOwner",
          "type": "address"
        }
      ],
      "name": "transferOwnership",
      "outputs": [],
      "stateMutability": "nonpayable",
      "type": "function"
    },
    {
      "inputs": [
        {
          "internalType": "address",
          "name": "",
          "type": "address"
        }
      ],
      "name": "whitelisted",
      "outputs": [
        {
          "internalType": "bool",
          "name": "",
          "type": "bool"
        }
      ],
      "stateMutability": "view",
      "type": "function",
      "constant": true
    },
    {
      "inputs": [
        {
          "internalType": "address",
          "name": "_to",
          "type": "address"
        }
      ],
      "name": "mint",
      "outputs": [],
      "stateMutability": "payable",
      "type": "function",
      "payable": true
    },
    {
      "inputs": [
        {
          "internalType": "address",
          "name": "_to",
          "type": "address"
        },
        {
          "internalType": "uint256",
          "name": "_mintAmount",
          "type": "uint256"
        }
      ],
      "name": "mintMany",
      "outputs": [],
      "stateMutability": "payable",
      "type": "function",
      "payable": true
    },
    {
      "inputs": [
        {
          "internalType": "address",
          "name": "_owner",
          "type": "address"
        }
      ],
      "name": "walletOfOwner",
      "outputs": [
        {
          "internalType": "uint256[]",
          "name": "",
          "type": "uint256[]"
        }
      ],
      "stateMutability": "view",
      "type": "function",
      "constant": true
    },
    {
      "inputs": [
        {
          "internalType": "uint256",
          "name": "tokenId",
          "type": "uint256"
        }
      ],
      "name": "tokenURI",
      "outputs": [
        {
          "internalType": "string",
          "name": "",
          "type": "string"
        }
      ],
      "stateMutability": "view",
      "type": "function",
      "constant": true
    },
    {
      "inputs": [
        {
          "internalType": "uint256",
          "name": "_newCost",
          "type": "uint256"
        }
      ],
      "name": "setCost",
      "outputs": [],
      "stateMutability": "nonpayable",
      "type": "function"
    },
    {
      "inputs": [
        {
          "internalType": "string",
          "name": "_newBaseURI",
          "type": "string"
        }
      ],
      "name": "setBaseURI",
      "outputs": [],
      "stateMutability": "nonpayable",
      "type": "function"
    },
    {
      "inputs": [
        {
          "internalType": "string",
          "name": "_newBaseExtension",
          "type": "string"
        }
      ],
      "name": "setBaseExtension",
      "outputs": [],
      "stateMutability": "nonpayable",
      "type": "function"
    },
    {
      "inputs": [
        {
          "internalType": "bool",
          "name": "_state",
          "type": "bool"
        }
      ],
      "name": "pause",
      "outputs": [],
      "stateMutability": "nonpayable",
      "type": "function"
    },
    {
      "inputs": [
        {
          "internalType": "uint256",
          "name": "_newMaxSupply",
          "type": "uint256"
        }
      ],
      "name": "increaseMaxSupply",
      "outputs": [],
      "stateMutability": "nonpayable",
      "type": "function"
    },
    {
      "inputs": [
        {
          "internalType": "uint256",
          "name": "_newMaxMintAmount",
          "type": "uint256"
        }
      ],
      "name": "setMaxMintAmount",
      "outputs": [],
      "stateMutability": "nonpayable",
      "type": "function"
    },
    {
      "inputs": [
        {
          "internalType": "uint256",
          "name": "_newMaxWLMintAmount",
          "type": "uint256"
        }
      ],
      "name": "setMaxWLMintAmount",
      "outputs": [],
      "stateMutability": "nonpayable",
      "type": "function"
    },
    {
      "inputs": [
        {
          "internalType": "address",
          "name": "_user",
          "type": "address"
        }
      ],
      "name": "whitelistUser",
      "outputs": [],
      "stateMutability": "nonpayable",
      "type": "function"
    },
    {
      "inputs": [
        {
          "internalType": "address",
          "name": "_user",
          "type": "address"
        }
      ],
      "name": "removeWhiteListedUser",
      "outputs": [],
      "stateMutability": "nonpayable",
      "type": "function"
    },
    {
      "inputs": [],
      "name": "withdraw",
      "outputs": [],
      "stateMutability": "payable",
      "type": "function",
      "payable": true
    }
  ],
  "bytecode": "0x60806040526040518060400160405280600581526020017f2e6a736f6e000000000000000000000000000000000000000000000000000000815250600c908051906020019062000051929190620002ce565b5066b1a2bc2ec50000600d556103e8600e556000600f60006101000a81548160ff021916908315150217905550600a60105560026011553480156200009557600080fd5b50604051620052f1380380620052f18339818101604052810190620000bb91906200051b565b82828160009080519060200190620000d5929190620002ce565b508060019080519060200190620000ee929190620002ce565b50505062000111620001056200012b60201b60201c565b6200013360201b60201c565b6200012281620001f960201b60201c565b505050620006bc565b600033905090565b6000600a60009054906101000a900473ffffffffffffffffffffffffffffffffffffffff16905081600a60006101000a81548173ffffffffffffffffffffffffffffffffffffffff021916908373ffffffffffffffffffffffffffffffffffffffff1602179055508173ffffffffffffffffffffffffffffffffffffffff168173ffffffffffffffffffffffffffffffffffffffff167f8be0079c531659141344cd1fd0a4f28419497f9722a3daafe3b4186f6b6457e060405160405180910390a35050565b620002096200012b60201b60201c565b73ffffffffffffffffffffffffffffffffffffffff166200022f620002a460201b60201c565b73ffffffffffffffffffffffffffffffffffffffff161462000288576040517f08c379a00000000000000000000000000000000000000000000000000000000081526004016200027f9062000635565b60405180910390fd5b80600b9080519060200190620002a0929190620002ce565b5050565b6000600a60009054906101000a900473ffffffffffffffffffffffffffffffffffffffff16905090565b828054620002dc9062000686565b90600052602060002090601f0160209004810192826200030057600085556200034c565b82601f106200031b57805160ff19168380011785556200034c565b828001600101855582156200034c579182015b828111156200034b5782518255916020019190600101906200032e565b5b5090506200035b91906200035f565b5090565b5b808211156200037a57600081600090555060010162000360565b5090565b6000604051905090565b600080fd5b600080fd5b600080fd5b600080fd5b6000601f19601f8301169050919050565b7f4e487b7100000000000000000000000000000000000000000000000000000000600052604160045260246000fd5b620003e7826200039c565b810181811067ffffffffffffffff82111715620004095762000408620003ad565b5b80604052505050565b60006200041e6200037e565b90506200042c8282620003dc565b919050565b600067ffffffffffffffff8211156200044f576200044e620003ad565b5b6200045a826200039c565b9050602081019050919050565b60005b83811015620004875780820151818401526020810190506200046a565b8381111562000497576000848401525b50505050565b6000620004b4620004ae8462000431565b62000412565b905082815260208101848484011115620004d357620004d262000397565b5b620004e084828562000467565b509392505050565b600082601f8301126200050057620004ff62000392565b5b8151620005128482602086016200049d565b91505092915050565b60008060006060848603121562000537576200053662000388565b5b600084015167ffffffffffffffff8111156200055857620005576200038d565b5b6200056686828701620004e8565b935050602084015167ffffffffffffffff8111156200058a57620005896200038d565b5b6200059886828701620004e8565b925050604084015167ffffffffffffffff811115620005bc57620005bb6200038d565b5b620005ca86828701620004e8565b9150509250925092565b600082825260208201905092915050565b7f4f776e61626c653a2063616c6c6572206973206e6f7420746865206f776e6572600082015250565b60006200061d602083620005d4565b91506200062a82620005e5565b602082019050919050565b6000602082019050818103600083015262000650816200060e565b9050919050565b7f4e487b7100000000000000000000000000000000000000000000000000000000600052602260045260246000fd5b600060028204905060018216806200069f57607f821691505b60208210811415620006b657620006b562000657565b5b50919050565b614c2580620006cc6000396000f3fe60806040526004361061023b5760003560e01c80635e8306561161012e578063a22cb465116100ab578063d936547e1161006f578063d936547e14610844578063da3ef23f14610881578063dbbc5c17146108aa578063e985e9c5146108d5578063f2fde38b146109125761023b565b8063a22cb4651461075f578063b88d4fde14610788578063c6682862146107b1578063c87b56dd146107dc578063d5abeb01146108195761023b565b806370a08231116100f257806370a082311461068c578063715018a6146106c95780638da5cb5b146106e057806390edbfee1461070b57806395d89b41146107345761023b565b80635e830656146105c35780636352211e146105df578063649937891461061c5780636a627842146106455780636c0360eb146106615761023b565b806323b872dd116101bc57806344a0d68a1161018057806344a0d68a146104e05780634a4c560d146105095780634f6ccce71461053257806355f804b31461056f5780635c975abb146105985761023b565b806323b872dd1461040a5780632f745c59146104335780633ccfd60b1461047057806342842e0e1461047a578063438b6300146104a35761023b565b8063088a4ed011610203578063088a4ed014610337578063095ea7b31461036057806313faede61461038957806318160ddd146103b4578063239c70ae146103df5761023b565b806301ffc9a71461024057806302329a291461027d57806303e21a1f146102a657806306fdde03146102cf578063081812fc146102fa575b600080fd5b34801561024c57600080fd5b50610267600480360381019061026291906132b3565b61093b565b60405161027491906132fb565b60405180910390f35b34801561028957600080fd5b506102a4600480360381019061029f9190613342565b6109b5565b005b3480156102b257600080fd5b506102cd60048036038101906102c891906133a5565b610a4e565b005b3480156102db57600080fd5b506102e4610ad4565b6040516102f1919061346b565b60405180910390f35b34801561030657600080fd5b50610321600480360381019061031c91906133a5565b610b66565b60405161032e91906134ce565b60405180910390f35b34801561034357600080fd5b5061035e600480360381019061035991906133a5565b610beb565b005b34801561036c57600080fd5b5061038760048036038101906103829190613515565b610c71565b005b34801561039557600080fd5b5061039e610d89565b6040516103ab9190613564565b60405180910390f35b3480156103c057600080fd5b506103c9610d8f565b6040516103d69190613564565b60405180910390f35b3480156103eb57600080fd5b506103f4610d9c565b6040516104019190613564565b60405180910390f35b34801561041657600080fd5b50610431600480360381019061042c919061357f565b610da2565b005b34801561043f57600080fd5b5061045a60048036038101906104559190613515565b610e02565b6040516104679190613564565b60405180910390f35b610478610ea7565b005b34801561048657600080fd5b506104a1600480360381019061049c919061357f565b610fa3565b005b3480156104af57600080fd5b506104ca60048036038101906104c591906135d2565b610fc3565b6040516104d791906136bd565b60405180910390f35b3480156104ec57600080fd5b50610507600480360381019061050291906133a5565b611071565b005b34801561051557600080fd5b50610530600480360381019061052b91906135d2565b6110f7565b005b34801561053e57600080fd5b50610559600480360381019061055491906133a5565b6111ce565b6040516105669190613564565b60405180910390f35b34801561057b57600080fd5b5061059660048036038101906105919190613814565b61123f565b005b3480156105a457600080fd5b506105ad6112d5565b6040516105ba91906132fb565b60405180910390f35b6105dd60048036038101906105d89190613515565b6112e8565b005b3480156105eb57600080fd5b50610606600480360381019061060191906133a5565b611597565b60405161061391906134ce565b60405180910390f35b34801561062857600080fd5b50610643600480360381019061063e91906135d2565b611649565b005b61065f600480360381019061065a91906135d2565b611720565b005b34801561066d57600080fd5b5061067661181e565b604051610683919061346b565b60405180910390f35b34801561069857600080fd5b506106b360048036038101906106ae91906135d2565b6118ac565b6040516106c09190613564565b60405180910390f35b3480156106d557600080fd5b506106de611964565b005b3480156106ec57600080fd5b506106f56119ec565b60405161070291906134ce565b60405180910390f35b34801561071757600080fd5b50610732600480360381019061072d91906133a5565b611a16565b005b34801561074057600080fd5b50610749611ae0565b604051610756919061346b565b60405180910390f35b34801561076b57600080fd5b506107866004803603810190610781919061385d565b611b72565b005b34801561079457600080fd5b506107af60048036038101906107aa919061393e565b611cf3565b005b3480156107bd57600080fd5b506107c6611d55565b6040516107d3919061346b565b60405180910390f35b3480156107e857600080fd5b5061080360048036038101906107fe91906133a5565b611de3565b604051610810919061346b565b60405180910390f35b34801561082557600080fd5b5061082e611f10565b60405161083b9190613564565b60405180910390f35b34801561085057600080fd5b5061086b600480360381019061086691906135d2565b611f16565b60405161087891906132fb565b60405180910390f35b34801561088d57600080fd5b506108a860048036038101906108a39190613814565b611f36565b005b3480156108b657600080fd5b506108bf611fcc565b6040516108cc9190613564565b60405180910390f35b3480156108e157600080fd5b506108fc60048036038101906108f791906139c1565b611fd2565b60405161090991906132fb565b60405180910390f35b34801561091e57600080fd5b50610939600480360381019061093491906135d2565b612066565b005b60007f780e9d63000000000000000000000000000000000000000000000000000000007bffffffffffffffffffffffffffffffffffffffffffffffffffffffff1916827bffffffffffffffffffffffffffffffffffffffffffffffffffffffff191614806109ae57506109ad8261215e565b5b9050919050565b6109bd612240565b73ffffffffffffffffffffffffffffffffffffffff166109db6119ec565b73ffffffffffffffffffffffffffffffffffffffff1614610a31576040517f08c379a0000000000000000000000000000000000000000000000000000000008152600401610a2890613a4d565b60405180910390fd5b80600f60006101000a81548160ff02191690831515021790555050565b610a56612240565b73ffffffffffffffffffffffffffffffffffffffff16610a746119ec565b73ffffffffffffffffffffffffffffffffffffffff1614610aca576040517f08c379a0000000000000000000000000000000000000000000000000000000008152600401610ac190613a4d565b60405180910390fd5b8060118190555050565b606060008054610ae390613a9c565b80601f0160208091040260200160405190810160405280929190818152602001828054610b0f90613a9c565b8015610b5c5780601f10610b3157610100808354040283529160200191610b5c565b820191906000526020600020905b815481529060010190602001808311610b3f57829003601f168201915b5050505050905090565b6000610b7182612248565b610bb0576040517f08c379a0000000000000000000000000000000000000000000000000000000008152600401610ba790613b40565b60405180910390fd5b6004600083815260200190815260200160002060009054906101000a900473ffffffffffffffffffffffffffffffffffffffff169050919050565b610bf3612240565b73ffffffffffffffffffffffffffffffffffffffff16610c116119ec565b73ffffffffffffffffffffffffffffffffffffffff1614610c67576040517f08c379a0000000000000000000000000000000000000000000000000000000008152600401610c5e90613a4d565b60405180910390fd5b8060108190555050565b6000610c7c82611597565b90508073ffffffffffffffffffffffffffffffffffffffff168373ffffffffffffffffffffffffffffffffffffffff161415610ced576040517f08c379a0000000000000000000000000000000000000000000000000000000008152600401610ce490613bd2565b60405180910390fd5b8073ffffffffffffffffffffffffffffffffffffffff16610d0c612240565b73ffffffffffffffffffffffffffffffffffffffff161480610d3b5750610d3a81610d35612240565b611fd2565b5b610d7a576040517f08c379a0000000000000000000000000000000000000000000000000000000008152600401610d7190613c64565b60405180910390fd5b610d8483836122b4565b505050565b600d5481565b6000600880549050905090565b60105481565b610db3610dad612240565b8261236d565b610df2576040517f08c379a0000000000000000000000000000000000000000000000000000000008152600401610de990613cf6565b60405180910390fd5b610dfd83838361244b565b505050565b6000610e0d836118ac565b8210610e4e576040517f08c379a0000000000000000000000000000000000000000000000000000000008152600401610e4590613d88565b60405180910390fd5b600660008473ffffffffffffffffffffffffffffffffffffffff1673ffffffffffffffffffffffffffffffffffffffff168152602001908152602001600020600083815260200190815260200160002054905092915050565b610eaf612240565b73ffffffffffffffffffffffffffffffffffffffff16610ecd6119ec565b73ffffffffffffffffffffffffffffffffffffffff1614610f23576040517f08c379a0000000000000000000000000000000000000000000000000000000008152600401610f1a90613a4d565b60405180910390fd5b6000610f2d6119ec565b73ffffffffffffffffffffffffffffffffffffffff1647604051610f5090613dd9565b60006040518083038185875af1925050503d8060008114610f8d576040519150601f19603f3d011682016040523d82523d6000602084013e610f92565b606091505b5050905080610fa057600080fd5b50565b610fbe83838360405180602001604052806000815250611cf3565b505050565b60606000610fd0836118ac565b905060008167ffffffffffffffff811115610fee57610fed6136e9565b5b60405190808252806020026020018201604052801561101c5781602001602082028036833780820191505090505b50905060005b82811015611066576110348582610e02565b82828151811061104757611046613dee565b5b602002602001018181525050808061105e90613e4c565b915050611022565b508092505050919050565b611079612240565b73ffffffffffffffffffffffffffffffffffffffff166110976119ec565b73ffffffffffffffffffffffffffffffffffffffff16146110ed576040517f08c379a00000000000000000000000000000000000000000000000000000000081526004016110e490613a4d565b60405180910390fd5b80600d8190555050565b6110ff612240565b73ffffffffffffffffffffffffffffffffffffffff1661111d6119ec565b73ffffffffffffffffffffffffffffffffffffffff1614611173576040517f08c379a000000000000000000000000000000000000000000000000000000000815260040161116a90613a4d565b60405180910390fd5b6001601260008373ffffffffffffffffffffffffffffffffffffffff1673ffffffffffffffffffffffffffffffffffffffff16815260200190815260200160002060006101000a81548160ff02191690831515021790555050565b60006111d8610d8f565b8210611219576040517f08c379a000000000000000000000000000000000000000000000000000000000815260040161121090613f07565b60405180910390fd5b6008828154811061122d5761122c613dee565b5b90600052602060002001549050919050565b611247612240565b73ffffffffffffffffffffffffffffffffffffffff166112656119ec565b73ffffffffffffffffffffffffffffffffffffffff16146112bb576040517f08c379a00000000000000000000000000000000000000000000000000000000081526004016112b290613a4d565b60405180910390fd5b80600b90805190602001906112d19291906131a4565b5050565b600f60009054906101000a900460ff1681565b60006112f2610d8f565b9050600f60009054906101000a900460ff1615611344576040517f08c379a000000000000000000000000000000000000000000000000000000000815260040161133b90613f99565b60405180910390fd5b600e5482826113539190613fb9565b1115611394576040517f08c379a000000000000000000000000000000000000000000000000000000000815260040161138b90614081565b60405180910390fd5b6010548211156113d9576040517f08c379a00000000000000000000000000000000000000000000000000000000081526004016113d090614113565b60405180910390fd5b60001515601260003373ffffffffffffffffffffffffffffffffffffffff1673ffffffffffffffffffffffffffffffffffffffff16815260200190815260200160002060009054906101000a900460ff1615151461147757601154821115611476576040517f08c379a000000000000000000000000000000000000000000000000000000000815260040161146d906141a5565b60405180910390fd5b5b61147f6119ec565b73ffffffffffffffffffffffffffffffffffffffff163373ffffffffffffffffffffffffffffffffffffffff161461155b5760011515601260003373ffffffffffffffffffffffffffffffffffffffff1673ffffffffffffffffffffffffffffffffffffffff16815260200190815260200160002060009054906101000a900460ff1615151461155a5781600d5461151791906141c5565b341015611559576040517f08c379a000000000000000000000000000000000000000000000000000000000815260040161155090614291565b60405180910390fd5b5b5b6000600190505b8281116115915761157e8482846115799190613fb9565b6126a7565b808061158990613e4c565b915050611562565b50505050565b6000806002600084815260200190815260200160002060009054906101000a900473ffffffffffffffffffffffffffffffffffffffff169050600073ffffffffffffffffffffffffffffffffffffffff168173ffffffffffffffffffffffffffffffffffffffff161415611640576040517f08c379a000000000000000000000000000000000000000000000000000000000815260040161163790614323565b60405180910390fd5b80915050919050565b611651612240565b73ffffffffffffffffffffffffffffffffffffffff1661166f6119ec565b73ffffffffffffffffffffffffffffffffffffffff16146116c5576040517f08c379a00000000000000000000000000000000000000000000000000000000081526004016116bc90613a4d565b60405180910390fd5b6000601260008373ffffffffffffffffffffffffffffffffffffffff1673ffffffffffffffffffffffffffffffffffffffff16815260200190815260200160002060006101000a81548160ff02191690831515021790555050565b600061172a610d8f565b9050600f60009054906101000a900460ff161561174657600080fd5b600e546001826117569190613fb9565b111561176157600080fd5b6117696119ec565b73ffffffffffffffffffffffffffffffffffffffff163373ffffffffffffffffffffffffffffffffffffffff16146118045760011515601260003373ffffffffffffffffffffffffffffffffffffffff1673ffffffffffffffffffffffffffffffffffffffff16815260200190815260200160002060009054906101000a900460ff1615151461180357600d5434101561180257600080fd5b5b5b61181a826001836118159190613fb9565b6126a7565b5050565b600b805461182b90613a9c565b80601f016020809104026020016040519081016040528092919081815260200182805461185790613a9c565b80156118a45780601f10611879576101008083540402835291602001916118a4565b820191906000526020600020905b81548152906001019060200180831161188757829003601f168201915b505050505081565b60008073ffffffffffffffffffffffffffffffffffffffff168273ffffffffffffffffffffffffffffffffffffffff16141561191d576040517f08c379a0000000000000000000000000000000000000000000000000000000008152600401611914906143b5565b60405180910390fd5b600360008373ffffffffffffffffffffffffffffffffffffffff1673ffffffffffffffffffffffffffffffffffffffff168152602001908152602001600020549050919050565b61196c612240565b73ffffffffffffffffffffffffffffffffffffffff1661198a6119ec565b73ffffffffffffffffffffffffffffffffffffffff16146119e0576040517f08c379a00000000000000000000000000000000000000000000000000000000081526004016119d790613a4d565b60405180910390fd5b6119ea60006126c5565b565b6000600a60009054906101000a900473ffffffffffffffffffffffffffffffffffffffff16905090565b611a1e612240565b73ffffffffffffffffffffffffffffffffffffffff16611a3c6119ec565b73ffffffffffffffffffffffffffffffffffffffff1614611a92576040517f08c379a0000000000000000000000000000000000000000000000000000000008152600401611a8990613a4d565b60405180910390fd5b600e548111611ad6576040517f08c379a0000000000000000000000000000000000000000000000000000000008152600401611acd90614447565b60405180910390fd5b80600e8190555050565b606060018054611aef90613a9c565b80601f0160208091040260200160405190810160405280929190818152602001828054611b1b90613a9c565b8015611b685780601f10611b3d57610100808354040283529160200191611b68565b820191906000526020600020905b815481529060010190602001808311611b4b57829003601f168201915b5050505050905090565b611b7a612240565b73ffffffffffffffffffffffffffffffffffffffff168273ffffffffffffffffffffffffffffffffffffffff161415611be8576040517f08c379a0000000000000000000000000000000000000000000000000000000008152600401611bdf906144b3565b60405180910390fd5b8060056000611bf5612240565b73ffffffffffffffffffffffffffffffffffffffff1673ffffffffffffffffffffffffffffffffffffffff16815260200190815260200160002060008473ffffffffffffffffffffffffffffffffffffffff1673ffffffffffffffffffffffffffffffffffffffff16815260200190815260200160002060006101000a81548160ff0219169083151502179055508173ffffffffffffffffffffffffffffffffffffffff16611ca2612240565b73ffffffffffffffffffffffffffffffffffffffff167f17307eab39ab6107e8899845ad3d59bd9653f200f220920489ca2b5937696c3183604051611ce791906132fb565b60405180910390a35050565b611d04611cfe612240565b8361236d565b611d43576040517f08c379a0000000000000000000000000000000000000000000000000000000008152600401611d3a90613cf6565b60405180910390fd5b611d4f8484848461278b565b50505050565b600c8054611d6290613a9c565b80601f0160208091040260200160405190810160405280929190818152602001828054611d8e90613a9c565b8015611ddb5780601f10611db057610100808354040283529160200191611ddb565b820191906000526020600020905b815481529060010190602001808311611dbe57829003601f168201915b505050505081565b6060611dee82612248565b611e2d576040517f08c379a0000000000000000000000000000000000000000000000000000000008152600401611e2490614545565b60405180910390fd5b6000600b8054611e3c90613a9c565b80601f0160208091040260200160405190810160405280929190818152602001828054611e6890613a9c565b8015611eb55780601f10611e8a57610100808354040283529160200191611eb5565b820191906000526020600020905b815481529060010190602001808311611e9857829003601f168201915b505050505090506000815111611eda5760405180602001604052806000815250611f08565b80611ee4846127e7565b600c604051602001611ef893929190614635565b6040516020818303038152906040525b915050919050565b600e5481565b60126020528060005260406000206000915054906101000a900460ff1681565b611f3e612240565b73ffffffffffffffffffffffffffffffffffffffff16611f5c6119ec565b73ffffffffffffffffffffffffffffffffffffffff1614611fb2576040517f08c379a0000000000000000000000000000000000000000000000000000000008152600401611fa990613a4d565b60405180910390fd5b80600c9080519060200190611fc89291906131a4565b5050565b60115481565b6000600560008473ffffffffffffffffffffffffffffffffffffffff1673ffffffffffffffffffffffffffffffffffffffff16815260200190815260200160002060008373ffffffffffffffffffffffffffffffffffffffff1673ffffffffffffffffffffffffffffffffffffffff16815260200190815260200160002060009054906101000a900460ff16905092915050565b61206e612240565b73ffffffffffffffffffffffffffffffffffffffff1661208c6119ec565b73ffffffffffffffffffffffffffffffffffffffff16146120e2576040517f08c379a00000000000000000000000000000000000000000000000000000000081526004016120d990613a4d565b60405180910390fd5b600073ffffffffffffffffffffffffffffffffffffffff168173ffffffffffffffffffffffffffffffffffffffff161415612152576040517f08c379a0000000000000000000000000000000000000000000000000000000008152600401612149906146d8565b60405180910390fd5b61215b816126c5565b50565b60007f80ac58cd000000000000000000000000000000000000000000000000000000007bffffffffffffffffffffffffffffffffffffffffffffffffffffffff1916827bffffffffffffffffffffffffffffffffffffffffffffffffffffffff1916148061222957507f5b5e139f000000000000000000000000000000000000000000000000000000007bffffffffffffffffffffffffffffffffffffffffffffffffffffffff1916827bffffffffffffffffffffffffffffffffffffffffffffffffffffffff1916145b80612239575061223882612948565b5b9050919050565b600033905090565b60008073ffffffffffffffffffffffffffffffffffffffff166002600084815260200190815260200160002060009054906101000a900473ffffffffffffffffffffffffffffffffffffffff1673ffffffffffffffffffffffffffffffffffffffff1614159050919050565b816004600083815260200190815260200160002060006101000a81548173ffffffffffffffffffffffffffffffffffffffff021916908373ffffffffffffffffffffffffffffffffffffffff160217905550808273ffffffffffffffffffffffffffffffffffffffff1661232783611597565b73ffffffffffffffffffffffffffffffffffffffff167f8c5be1e5ebec7d5bd14f71427d1e84f3dd0314c0f7b2291e5b200ac8c7c3b92560405160405180910390a45050565b600061237882612248565b6123b7576040517f08c379a00000000000000000000000000000000000000000000000000000000081526004016123ae9061476a565b60405180910390fd5b60006123c283611597565b90508073ffffffffffffffffffffffffffffffffffffffff168473ffffffffffffffffffffffffffffffffffffffff16148061243157508373ffffffffffffffffffffffffffffffffffffffff1661241984610b66565b73ffffffffffffffffffffffffffffffffffffffff16145b8061244257506124418185611fd2565b5b91505092915050565b8273ffffffffffffffffffffffffffffffffffffffff1661246b82611597565b73ffffffffffffffffffffffffffffffffffffffff16146124c1576040517f08c379a00000000000000000000000000000000000000000000000000000000081526004016124b8906147fc565b60405180910390fd5b600073ffffffffffffffffffffffffffffffffffffffff168273ffffffffffffffffffffffffffffffffffffffff161415612531576040517f08c379a00000000000000000000000000000000000000000000000000000000081526004016125289061488e565b60405180910390fd5b61253c8383836129b2565b6125476000826122b4565b6001600360008573ffffffffffffffffffffffffffffffffffffffff1673ffffffffffffffffffffffffffffffffffffffff168152602001908152602001600020600082825461259791906148ae565b925050819055506001600360008473ffffffffffffffffffffffffffffffffffffffff1673ffffffffffffffffffffffffffffffffffffffff16815260200190815260200160002060008282546125ee9190613fb9565b92505081905550816002600083815260200190815260200160002060006101000a81548173ffffffffffffffffffffffffffffffffffffffff021916908373ffffffffffffffffffffffffffffffffffffffff160217905550808273ffffffffffffffffffffffffffffffffffffffff168473ffffffffffffffffffffffffffffffffffffffff167fddf252ad1be2c89b69c2b068fc378daa952ba7f163c4a11628f55a4df523b3ef60405160405180910390a4505050565b6126c1828260405180602001604052806000815250612ac6565b5050565b6000600a60009054906101000a900473ffffffffffffffffffffffffffffffffffffffff16905081600a60006101000a81548173ffffffffffffffffffffffffffffffffffffffff021916908373ffffffffffffffffffffffffffffffffffffffff1602179055508173ffffffffffffffffffffffffffffffffffffffff168173ffffffffffffffffffffffffffffffffffffffff167f8be0079c531659141344cd1fd0a4f28419497f9722a3daafe3b4186f6b6457e060405160405180910390a35050565b61279684848461244b565b6127a284848484612b21565b6127e1576040517f08c379a00000000000000000000000000000000000000000000000000000000081526004016127d890614954565b60405180910390fd5b50505050565b6060600082141561282f576040518060400160405280600181526020017f30000000000000000000000000000000000000000000000000000000000000008152509050612943565b600082905060005b6000821461286157808061284a90613e4c565b915050600a8261285a91906149a3565b9150612837565b60008167ffffffffffffffff81111561287d5761287c6136e9565b5b6040519080825280601f01601f1916602001820160405280156128af5781602001600182028036833780820191505090505b5090505b6000851461293c576001826128c891906148ae565b9150600a856128d791906149d4565b60306128e39190613fb9565b60f81b8183815181106128f9576128f8613dee565b5b60200101907effffffffffffffffffffffffffffffffffffffffffffffffffffffffffffff1916908160001a905350600a8561293591906149a3565b94506128b3565b8093505050505b919050565b60007f01ffc9a7000000000000000000000000000000000000000000000000000000007bffffffffffffffffffffffffffffffffffffffffffffffffffffffff1916827bffffffffffffffffffffffffffffffffffffffffffffffffffffffff1916149050919050565b6129bd838383612cb8565b600073ffffffffffffffffffffffffffffffffffffffff168373ffffffffffffffffffffffffffffffffffffffff161415612a00576129fb81612cbd565b612a3f565b8173ffffffffffffffffffffffffffffffffffffffff168373ffffffffffffffffffffffffffffffffffffffff1614612a3e57612a3d8382612d06565b5b5b600073ffffffffffffffffffffffffffffffffffffffff168273ffffffffffffffffffffffffffffffffffffffff161415612a8257612a7d81612e73565b612ac1565b8273ffffffffffffffffffffffffffffffffffffffff168273ffffffffffffffffffffffffffffffffffffffff1614612ac057612abf8282612f44565b5b5b505050565b612ad08383612fc3565b612add6000848484612b21565b612b1c576040517f08c379a0000000000000000000000000000000000000000000000000000000008152600401612b1390614954565b60405180910390fd5b505050565b6000612b428473ffffffffffffffffffffffffffffffffffffffff16613191565b15612cab578373ffffffffffffffffffffffffffffffffffffffff1663150b7a02612b6b612240565b8786866040518563ffffffff1660e01b8152600401612b8d9493929190614a5a565b602060405180830381600087803b158015612ba757600080fd5b505af1925050508015612bd857506040513d601f19601f82011682018060405250810190612bd59190614abb565b60015b612c5b573d8060008114612c08576040519150601f19603f3d011682016040523d82523d6000602084013e612c0d565b606091505b50600081511415612c53576040517f08c379a0000000000000000000000000000000000000000000000000000000008152600401612c4a90614954565b60405180910390fd5b805181602001fd5b63150b7a0260e01b7bffffffffffffffffffffffffffffffffffffffffffffffffffffffff1916817bffffffffffffffffffffffffffffffffffffffffffffffffffffffff191614915050612cb0565b600190505b949350505050565b505050565b6008805490506009600083815260200190815260200160002081905550600881908060018154018082558091505060019003906000526020600020016000909190919091505550565b60006001612d13846118ac565b612d1d91906148ae565b9050600060076000848152602001908152602001600020549050818114612e02576000600660008673ffffffffffffffffffffffffffffffffffffffff1673ffffffffffffffffffffffffffffffffffffffff168152602001908152602001600020600084815260200190815260200160002054905080600660008773ffffffffffffffffffffffffffffffffffffffff1673ffffffffffffffffffffffffffffffffffffffff168152602001908152602001600020600084815260200190815260200160002081905550816007600083815260200190815260200160002081905550505b6007600084815260200190815260200160002060009055600660008573ffffffffffffffffffffffffffffffffffffffff1673ffffffffffffffffffffffffffffffffffffffff16815260200190815260200160002060008381526020019081526020016000206000905550505050565b60006001600880549050612e8791906148ae565b9050600060096000848152602001908152602001600020549050600060088381548110612eb757612eb6613dee565b5b906000526020600020015490508060088381548110612ed957612ed8613dee565b5b906000526020600020018190555081600960008381526020019081526020016000208190555060096000858152602001908152602001600020600090556008805480612f2857612f27614ae8565b5b6001900381819060005260206000200160009055905550505050565b6000612f4f836118ac565b905081600660008573ffffffffffffffffffffffffffffffffffffffff1673ffffffffffffffffffffffffffffffffffffffff168152602001908152602001600020600083815260200190815260200160002081905550806007600084815260200190815260200160002081905550505050565b600073ffffffffffffffffffffffffffffffffffffffff168273ffffffffffffffffffffffffffffffffffffffff161415613033576040517f08c379a000000000000000000000000000000000000000000000000000000000815260040161302a90614b63565b60405180910390fd5b61303c81612248565b1561307c576040517f08c379a000000000000000000000000000000000000000000000000000000000815260040161307390614bcf565b60405180910390fd5b613088600083836129b2565b6001600360008473ffffffffffffffffffffffffffffffffffffffff1673ffffffffffffffffffffffffffffffffffffffff16815260200190815260200160002060008282546130d89190613fb9565b92505081905550816002600083815260200190815260200160002060006101000a81548173ffffffffffffffffffffffffffffffffffffffff021916908373ffffffffffffffffffffffffffffffffffffffff160217905550808273ffffffffffffffffffffffffffffffffffffffff16600073ffffffffffffffffffffffffffffffffffffffff167fddf252ad1be2c89b69c2b068fc378daa952ba7f163c4a11628f55a4df523b3ef60405160405180910390a45050565b600080823b905060008111915050919050565b8280546131b090613a9c565b90600052602060002090601f0160209004810192826131d25760008555613219565b82601f106131eb57805160ff1916838001178555613219565b82800160010185558215613219579182015b828111156132185782518255916020019190600101906131fd565b5b509050613226919061322a565b5090565b5b8082111561324357600081600090555060010161322b565b5090565b6000604051905090565b600080fd5b600080fd5b60007fffffffff0000000000000000000000000000000000000000000000000000000082169050919050565b6132908161325b565b811461329b57600080fd5b50565b6000813590506132ad81613287565b92915050565b6000602082840312156132c9576132c8613251565b5b60006132d78482850161329e565b91505092915050565b60008115159050919050565b6132f5816132e0565b82525050565b600060208201905061331060008301846132ec565b92915050565b61331f816132e0565b811461332a57600080fd5b50565b60008135905061333c81613316565b92915050565b60006020828403121561335857613357613251565b5b60006133668482850161332d565b91505092915050565b6000819050919050565b6133828161336f565b811461338d57600080fd5b50565b60008135905061339f81613379565b92915050565b6000602082840312156133bb576133ba613251565b5b60006133c984828501613390565b91505092915050565b600081519050919050565b600082825260208201905092915050565b60005b8381101561340c5780820151818401526020810190506133f1565b8381111561341b576000848401525b50505050565b6000601f19601f8301169050919050565b600061343d826133d2565b61344781856133dd565b93506134578185602086016133ee565b61346081613421565b840191505092915050565b600060208201905081810360008301526134858184613432565b905092915050565b600073ffffffffffffffffffffffffffffffffffffffff82169050919050565b60006134b88261348d565b9050919050565b6134c8816134ad565b82525050565b60006020820190506134e360008301846134bf565b92915050565b6134f2816134ad565b81146134fd57600080fd5b50565b60008135905061350f816134e9565b92915050565b6000806040838503121561352c5761352b613251565b5b600061353a85828601613500565b925050602061354b85828601613390565b9150509250929050565b61355e8161336f565b82525050565b60006020820190506135796000830184613555565b92915050565b60008060006060848603121561359857613597613251565b5b60006135a686828701613500565b93505060206135b786828701613500565b92505060406135c886828701613390565b9150509250925092565b6000602082840312156135e8576135e7613251565b5b60006135f684828501613500565b91505092915050565b600081519050919050565b600082825260208201905092915050565b6000819050602082019050919050565b6136348161336f565b82525050565b6000613646838361362b565b60208301905092915050565b6000602082019050919050565b600061366a826135ff565b613674818561360a565b935061367f8361361b565b8060005b838110156136b0578151613697888261363a565b97506136a283613652565b925050600181019050613683565b5085935050505092915050565b600060208201905081810360008301526136d7818461365f565b905092915050565b600080fd5b600080fd5b7f4e487b7100000000000000000000000000000000000000000000000000000000600052604160045260246000fd5b61372182613421565b810181811067ffffffffffffffff821117156137405761373f6136e9565b5b80604052505050565b6000613753613247565b905061375f8282613718565b919050565b600067ffffffffffffffff82111561377f5761377e6136e9565b5b61378882613421565b9050602081019050919050565b82818337600083830152505050565b60006137b76137b284613764565b613749565b9050828152602081018484840111156137d3576137d26136e4565b5b6137de848285613795565b509392505050565b600082601f8301126137fb576137fa6136df565b5b813561380b8482602086016137a4565b91505092915050565b60006020828403121561382a57613829613251565b5b600082013567ffffffffffffffff81111561384857613847613256565b5b613854848285016137e6565b91505092915050565b6000806040838503121561387457613873613251565b5b600061388285828601613500565b92505060206138938582860161332d565b9150509250929050565b600067ffffffffffffffff8211156138b8576138b76136e9565b5b6138c182613421565b9050602081019050919050565b60006138e16138dc8461389d565b613749565b9050828152602081018484840111156138fd576138fc6136e4565b5b613908848285613795565b509392505050565b600082601f830112613925576139246136df565b5b81356139358482602086016138ce565b91505092915050565b6000806000806080858703121561395857613957613251565b5b600061396687828801613500565b945050602061397787828801613500565b935050604061398887828801613390565b925050606085013567ffffffffffffffff8111156139a9576139a8613256565b5b6139b587828801613910565b91505092959194509250565b600080604083850312156139d8576139d7613251565b5b60006139e685828601613500565b92505060206139f785828601613500565b9150509250929050565b7f4f776e61626c653a2063616c6c6572206973206e6f7420746865206f776e6572600082015250565b6000613a376020836133dd565b9150613a4282613a01565b602082019050919050565b60006020820190508181036000830152613a6681613a2a565b9050919050565b7f4e487b7100000000000000000000000000000000000000000000000000000000600052602260045260246000fd5b60006002820490506001821680613ab457607f821691505b60208210811415613ac857613ac7613a6d565b5b50919050565b7f4552433732313a20617070726f76656420717565727920666f72206e6f6e657860008201527f697374656e7420746f6b656e0000000000000000000000000000000000000000602082015250565b6000613b2a602c836133dd565b9150613b3582613ace565b604082019050919050565b60006020820190508181036000830152613b5981613b1d565b9050919050565b7f4552433732313a20617070726f76616c20746f2063757272656e74206f776e6560008201527f7200000000000000000000000000000000000000000000000000000000000000602082015250565b6000613bbc6021836133dd565b9150613bc782613b60565b604082019050919050565b60006020820190508181036000830152613beb81613baf565b9050919050565b7f4552433732313a20617070726f76652063616c6c6572206973206e6f74206f7760008201527f6e6572206e6f7220617070726f76656420666f7220616c6c0000000000000000602082015250565b6000613c4e6038836133dd565b9150613c5982613bf2565b604082019050919050565b60006020820190508181036000830152613c7d81613c41565b9050919050565b7f4552433732313a207472616e736665722063616c6c6572206973206e6f74206f60008201527f776e6572206e6f7220617070726f766564000000000000000000000000000000602082015250565b6000613ce06031836133dd565b9150613ceb82613c84565b604082019050919050565b60006020820190508181036000830152613d0f81613cd3565b9050919050565b7f455243373231456e756d657261626c653a206f776e657220696e646578206f7560008201527f74206f6620626f756e6473000000000000000000000000000000000000000000602082015250565b6000613d72602b836133dd565b9150613d7d82613d16565b604082019050919050565b60006020820190508181036000830152613da181613d65565b9050919050565b600081905092915050565b50565b6000613dc3600083613da8565b9150613dce82613db3565b600082019050919050565b6000613de482613db6565b9150819050919050565b7f4e487b7100000000000000000000000000000000000000000000000000000000600052603260045260246000fd5b7f4e487b7100000000000000000000000000000000000000000000000000000000600052601160045260246000fd5b6000613e578261336f565b91507fffffffffffffffffffffffffffffffffffffffffffffffffffffffffffffffff821415613e8a57613e89613e1d565b5b600182019050919050565b7f455243373231456e756d657261626c653a20676c6f62616c20696e646578206f60008201527f7574206f6620626f756e64730000000000000000000000000000000000000000602082015250565b6000613ef1602c836133dd565b9150613efc82613e95565b604082019050919050565b60006020820190508181036000830152613f2081613ee4565b9050919050565b7f436f6e7472616374206973207061757365642c20636f6e74616374206f776e6560008201527f7220746f20756e70617573652069740000000000000000000000000000000000602082015250565b6000613f83602f836133dd565b9150613f8e82613f27565b604082019050919050565b60006020820190508181036000830152613fb281613f76565b9050919050565b6000613fc48261336f565b9150613fcf8361336f565b9250827fffffffffffffffffffffffffffffffffffffffffffffffffffffffffffffffff0382111561400457614003613e1d565b5b828201905092915050565b7f4d696e74656420616d6f756e7420776f756c6420657863656564206d6178537560008201527f70706c7900000000000000000000000000000000000000000000000000000000602082015250565b600061406b6024836133dd565b91506140768261400f565b604082019050919050565b6000602082019050818103600083015261409a8161405e565b9050919050565b7f43616e206e6f74206d696e74206d6f7265207468616e20746865206d61784d6960008201527f6e74416d6f756e74000000000000000000000000000000000000000000000000602082015250565b60006140fd6028836133dd565b9150614108826140a1565b604082019050919050565b6000602082019050818103600083015261412c816140f0565b9050919050565b7f5768697465204c697374656420616464726573732063616e206e6f74206d696e60008201527f74206d6f7265207468616e20746865206d6178574c4d696e74416d6f756e7400602082015250565b600061418f603f836133dd565b915061419a82614133565b604082019050919050565b600060208201905081810360008301526141be81614182565b9050919050565b60006141d08261336f565b91506141db8361336f565b9250817fffffffffffffffffffffffffffffffffffffffffffffffffffffffffffffffff048311821515161561421457614213613e1d565b5b828202905092915050565b7f496e73756666696369656e742066756e64732073656e7420746f207472616e7360008201527f616374696f6e0000000000000000000000000000000000000000000000000000602082015250565b600061427b6026836133dd565b91506142868261421f565b604082019050919050565b600060208201905081810360008301526142aa8161426e565b9050919050565b7f4552433732313a206f776e657220717565727920666f72206e6f6e657869737460008201527f656e7420746f6b656e0000000000000000000000000000000000000000000000602082015250565b600061430d6029836133dd565b9150614318826142b1565b604082019050919050565b6000602082019050818103600083015261433c81614300565b9050919050565b7f4552433732313a2062616c616e636520717565727920666f7220746865207a6560008201527f726f206164647265737300000000000000000000000000000000000000000000602082015250565b600061439f602a836133dd565b91506143aa82614343565b604082019050919050565b600060208201905081810360008301526143ce81614392565b9050919050565b7f43616e206e6f74207365742061206e6577206d6178537570706c79206c6f776560008201527f72207468616e207468652070726576696f757320737570706c79000000000000602082015250565b6000614431603a836133dd565b915061443c826143d5565b604082019050919050565b6000602082019050818103600083015261446081614424565b9050919050565b7f4552433732313a20617070726f766520746f2063616c6c657200000000000000600082015250565b600061449d6019836133dd565b91506144a882614467565b602082019050919050565b600060208201905081810360008301526144cc81614490565b9050919050565b7f4552433732314d657461646174613a2055524920717565727920666f72206e6f60008201527f6e6578697374656e7420746f6b656e0000000000000000000000000000000000602082015250565b600061452f602f836133dd565b915061453a826144d3565b604082019050919050565b6000602082019050818103600083015261455e81614522565b9050919050565b600081905092915050565b600061457b826133d2565b6145858185614565565b93506145958185602086016133ee565b80840191505092915050565b60008190508160005260206000209050919050565b600081546145c381613a9c565b6145cd8186614565565b945060018216600081146145e857600181146145f95761462c565b60ff1983168652818601935061462c565b614602856145a1565b60005b8381101561462457815481890152600182019150602081019050614605565b838801955050505b50505092915050565b60006146418286614570565b915061464d8285614570565b915061465982846145b6565b9150819050949350505050565b7f4f776e61626c653a206e6577206f776e657220697320746865207a65726f206160008201527f6464726573730000000000000000000000000000000000000000000000000000602082015250565b60006146c26026836133dd565b91506146cd82614666565b604082019050919050565b600060208201905081810360008301526146f1816146b5565b9050919050565b7f4552433732313a206f70657261746f7220717565727920666f72206e6f6e657860008201527f697374656e7420746f6b656e0000000000000000000000000000000000000000602082015250565b6000614754602c836133dd565b915061475f826146f8565b604082019050919050565b6000602082019050818103600083015261478381614747565b9050919050565b7f4552433732313a207472616e73666572206f6620746f6b656e2074686174206960008201527f73206e6f74206f776e0000000000000000000000000000000000000000000000602082015250565b60006147e66029836133dd565b91506147f18261478a565b604082019050919050565b60006020820190508181036000830152614815816147d9565b9050919050565b7f4552433732313a207472616e7366657220746f20746865207a65726f2061646460008201527f7265737300000000000000000000000000000000000000000000000000000000602082015250565b60006148786024836133dd565b91506148838261481c565b604082019050919050565b600060208201905081810360008301526148a78161486b565b9050919050565b60006148b98261336f565b91506148c48361336f565b9250828210156148d7576148d6613e1d565b5b828203905092915050565b7f4552433732313a207472616e7366657220746f206e6f6e20455243373231526560008201527f63656976657220696d706c656d656e7465720000000000000000000000000000602082015250565b600061493e6032836133dd565b9150614949826148e2565b604082019050919050565b6000602082019050818103600083015261496d81614931565b9050919050565b7f4e487b7100000000000000000000000000000000000000000000000000000000600052601260045260246000fd5b60006149ae8261336f565b91506149b98361336f565b9250826149c9576149c8614974565b5b828204905092915050565b60006149df8261336f565b91506149ea8361336f565b9250826149fa576149f9614974565b5b828206905092915050565b600081519050919050565b600082825260208201905092915050565b6000614a2c82614a05565b614a368185614a10565b9350614a468185602086016133ee565b614a4f81613421565b840191505092915050565b6000608082019050614a6f60008301876134bf565b614a7c60208301866134bf565b614a896040830185613555565b8181036060830152614a9b8184614a21565b905095945050505050565b600081519050614ab581613287565b92915050565b600060208284031215614ad157614ad0613251565b5b6000614adf84828501614aa6565b91505092915050565b7f4e487b7100000000000000000000000000000000000000000000000000000000600052603160045260246000fd5b7f4552433732313a206d696e7420746f20746865207a65726f2061646472657373600082015250565b6000614b4d6020836133dd565b9150614b5882614b17565b602082019050919050565b60006020820190508181036000830152614b7c81614b40565b9050919050565b7f4552433732313a20746f6b656e20616c7265616479206d696e74656400000000600082015250565b6000614bb9601c836133dd565b9150614bc482614b83565b602082019050919050565b60006020820190508181036000830152614be881614bac565b905091905056fea2646970667358221220d43f82ef5c2fc06e68621be06a50b6678b85135e65bbe00d187508b37360b2bc64736f6c63430008090033",
  "immutableReferences": {},
  "source": "// SPDX-License-Identifier: MIT\n\npragma solidity ^0.8.9;\n\nimport \"@openzeppelin/contracts/token/ERC721/extensions/ERC721Enumerable.sol\";\nimport \"@openzeppelin/contracts/access/Ownable.sol\";\n\n\ncontract ContractMachineTemplate is ERC721Enumerable, Ownable {\n    using Strings for uint256;\n\n    string public baseURI;\n    string public baseExtension = \".json\";\n\n    uint256 public cost = 0.05 ether;\n    uint256 public maxSupply = 1000;\n    bool public paused = false;\n    uint256 public maxMintAmount = 10;\n    uint256 public maxWLMintAmount = 2;\n\n    mapping(address => bool) public whitelisted;\n\n    constructor(\n        string memory _name,\n        string memory _symbol,\n        string memory _initBaseURI\n    ) ERC721(_name, _symbol) {\n        setBaseURI(_initBaseURI);\n    }\n\n    //internal functions\n    function _baseURI() internal view virtual override returns (string memory) {\n        return baseURI;\n    }\n\n\n    //public\n    function mint(address _to) public payable {\n        uint supply = totalSupply();\n        require(!paused);\n        require(supply + 1 <= maxSupply);\n\n        if (msg.sender != owner()){\n            if (whitelisted[msg.sender] != true) {\n                require(msg.value >= cost);\n            }\n        }\n        _safeMint(_to, supply + 1);\n    }\n\n    function mintMany(address _to, uint256 _mintAmount) public payable {\n        uint256 supply = totalSupply();\n        require(!paused, \"Contract is paused, contact owner to unpause it\");\n        require(supply + _mintAmount <= maxSupply, \"Minted amount would exceed maxSupply\");\n        require(_mintAmount <= maxMintAmount, \"Can not mint more than the maxMintAmount\");\n        \n        if (whitelisted[msg.sender] != false) {\n            require(_mintAmount <= maxWLMintAmount, \"White Listed address can not mint more than the maxWLMintAmount\");\n        }\n\n        if (msg.sender != owner()){\n            if (whitelisted[msg.sender] != true) {\n                require(msg.value >= cost * _mintAmount, \"Insufficient funds sent to transaction\");\n            }\n        }\n\n        for (uint256 i = 1; i <= _mintAmount; i++) {\n            _safeMint(_to, supply + i);\n        }\n    }\n\n    function walletOfOwner(address _owner) public view returns (uint256[] memory){\n        uint256 ownerTokenCount = balanceOf(_owner);\n        uint256[] memory tokenIds = new uint256[](ownerTokenCount);\n        for (uint256 i; i < ownerTokenCount; i++) {\n            tokenIds[i] = tokenOfOwnerByIndex(_owner, i);\n        }\n        return tokenIds;\n    }\n\n    function tokenURI(uint256 tokenId) public view virtual override returns (string memory){\n        require(_exists(tokenId), \"ERC721Metadata: URI query for nonexistent token\");\n        string memory currentBaseURI = baseURI;\n        return bytes(currentBaseURI).length > 0\n            ? string(abi.encodePacked(currentBaseURI, tokenId.toString(), baseExtension))\n            : \"\";\n    }\n\n    //owner functions\n    function setCost(uint256 _newCost) public onlyOwner {\n        cost = _newCost;\n    }\n\n    function setBaseURI(string memory _newBaseURI) public onlyOwner {\n        baseURI = _newBaseURI;\n    }\n\n    function setBaseExtension(string memory _newBaseExtension) public onlyOwner {\n        baseExtension = _newBaseExtension;\n    }\n\n    function pause(bool _state) public onlyOwner {\n        paused = _state;\n    }\n\n    function increaseMaxSupply(uint256 _newMaxSupply) public onlyOwner {\n        require(_newMaxSupply > maxSupply, \"Can not set a new maxSupply lower than the previous supply\");\n        maxSupply = _newMaxSupply;\n    }\n\n    function setMaxMintAmount(uint256 _newMaxMintAmount) public onlyOwner {\n        maxMintAmount = _newMaxMintAmount;\n    }\n\n    function setMaxWLMintAmount(uint256 _newMaxWLMintAmount) public onlyOwner {\n        maxWLMintAmount = _newMaxWLMintAmount;\n    }\n\n    function whitelistUser(address _user) public onlyOwner {\n        whitelisted[_user] = true;\n    }\n\n    function removeWhiteListedUser(address _user) public onlyOwner {\n        whitelisted[_user] = false;\n    }\n\n    function withdraw() public payable onlyOwner {\n        (bool os, ) = payable(owner()).call{value: address(this).balance}(\"\");\n        require(os);\n    }\n\n}",
  "sourcePath": "/Users/manueles95/Desktop/NFT/Truffle/ContractMachine/contracts/ContractMachineTemplate.sol",
  "compiler": {
    "name": "solc",
    "version": "0.8.9+commit.e5eed63a.Emscripten.clang"
  },
  "schemaVersion": "3.4.3",
  "updatedAt": "2021-11-12T03:50:46.767Z",
  "networkType": "ethereum",
  "devdoc": {
    "kind": "dev",
    "methods": {
      "approve(address,uint256)": {
        "details": "See {IERC721-approve}."
      },
      "balanceOf(address)": {
        "details": "See {IERC721-balanceOf}."
      },
      "getApproved(uint256)": {
        "details": "See {IERC721-getApproved}."
      },
      "isApprovedForAll(address,address)": {
        "details": "See {IERC721-isApprovedForAll}."
      },
      "name()": {
        "details": "See {IERC721Metadata-name}."
      },
      "owner()": {
        "details": "Returns the address of the current owner."
      },
      "ownerOf(uint256)": {
        "details": "See {IERC721-ownerOf}."
      },
      "renounceOwnership()": {
        "details": "Leaves the contract without owner. It will not be possible to call `onlyOwner` functions anymore. Can only be called by the current owner. NOTE: Renouncing ownership will leave the contract without an owner, thereby removing any functionality that is only available to the owner."
      },
      "safeTransferFrom(address,address,uint256)": {
        "details": "See {IERC721-safeTransferFrom}."
      },
      "safeTransferFrom(address,address,uint256,bytes)": {
        "details": "See {IERC721-safeTransferFrom}."
      },
      "setApprovalForAll(address,bool)": {
        "details": "See {IERC721-setApprovalForAll}."
      },
      "supportsInterface(bytes4)": {
        "details": "See {IERC165-supportsInterface}."
      },
      "symbol()": {
        "details": "See {IERC721Metadata-symbol}."
      },
      "tokenByIndex(uint256)": {
        "details": "See {IERC721Enumerable-tokenByIndex}."
      },
      "tokenOfOwnerByIndex(address,uint256)": {
        "details": "See {IERC721Enumerable-tokenOfOwnerByIndex}."
      },
      "tokenURI(uint256)": {
        "details": "See {IERC721Metadata-tokenURI}."
      },
      "totalSupply()": {
        "details": "See {IERC721Enumerable-totalSupply}."
      },
      "transferFrom(address,address,uint256)": {
        "details": "See {IERC721-transferFrom}."
      },
      "transferOwnership(address)": {
        "details": "Transfers ownership of the contract to a new account (`newOwner`). Can only be called by the current owner."
      }
    },
    "version": 1
  },
  "userdoc": {
    "kind": "user",
    "methods": {},
    "version": 1
  }
}