{
  "contractName": "Spooks",
  "abi": [
    {
      "inputs": [],
      "stateMutability": "nonpayable",
      "type": "constructor"
    },
    {
      "anonymous": false,
      "inputs": [
        {
          "indexed": true,
          "internalType": "address",
          "name": "owner",
          "type": "address"
        },
        {
          "indexed": true,
          "internalType": "address",
          "name": "approved",
          "type": "address"
        },
        {
          "indexed": true,
          "internalType": "uint256",
          "name": "tokenId",
          "type": "uint256"
        }
      ],
      "name": "Approval",
      "type": "event"
    },
    {
      "anonymous": false,
      "inputs": [
        {
          "indexed": true,
          "internalType": "address",
          "name": "owner",
          "type": "address"
        },
        {
          "indexed": true,
          "internalType": "address",
          "name": "operator",
          "type": "address"
        },
        {
          "indexed": false,
          "internalType": "bool",
          "name": "approved",
          "type": "bool"
        }
      ],
      "name": "ApprovalForAll",
      "type": "event"
    },
    {
      "anonymous": false,
      "inputs": [
        {
          "indexed": true,
          "internalType": "address",
          "name": "previousOwner",
          "type": "address"
        },
        {
          "indexed": true,
          "internalType": "address",
          "name": "newOwner",
          "type": "address"
        }
      ],
      "name": "OwnershipTransferred",
      "type": "event"
    },
    {
      "anonymous": false,
      "inputs": [
        {
          "indexed": true,
          "internalType": "address",
          "name": "from",
          "type": "address"
        },
        {
          "indexed": true,
          "internalType": "address",
          "name": "to",
          "type": "address"
        },
        {
          "indexed": true,
          "internalType": "uint256",
          "name": "tokenId",
          "type": "uint256"
        }
      ],
      "name": "Transfer",
      "type": "event"
    },
    {
      "inputs": [
        {
          "internalType": "address",
          "name": "to",
          "type": "address"
        },
        {
          "internalType": "uint256",
          "name": "tokenId",
          "type": "uint256"
        }
      ],
      "name": "approve",
      "outputs": [],
      "stateMutability": "nonpayable",
      "type": "function"
    },
    {
      "inputs": [
        {
          "internalType": "address",
          "name": "owner",
          "type": "address"
        }
      ],
      "name": "balanceOf",
      "outputs": [
        {
          "internalType": "uint256",
          "name": "",
          "type": "uint256"
        }
      ],
      "stateMutability": "view",
      "type": "function",
      "constant": true
    },
    {
      "inputs": [],
      "name": "baseExtension",
      "outputs": [
        {
          "internalType": "string",
          "name": "",
          "type": "string"
        }
      ],
      "stateMutability": "view",
      "type": "function",
      "constant": true
    },
    {
      "inputs": [],
      "name": "baseURI",
      "outputs": [
        {
          "internalType": "string",
          "name": "",
          "type": "string"
        }
      ],
      "stateMutability": "view",
      "type": "function",
      "constant": true
    },
    {
      "inputs": [],
      "name": "cost",
      "outputs": [
        {
          "internalType": "uint256",
          "name": "",
          "type": "uint256"
        }
      ],
      "stateMutability": "view",
      "type": "function",
      "constant": true
    },
    {
      "inputs": [
        {
          "internalType": "uint256",
          "name": "tokenId",
          "type": "uint256"
        }
      ],
      "name": "getApproved",
      "outputs": [
        {
          "internalType": "address",
          "name": "",
          "type": "address"
        }
      ],
      "stateMutability": "view",
      "type": "function",
      "constant": true
    },
    {
      "inputs": [
        {
          "internalType": "address",
          "name": "",
          "type": "address"
        }
      ],
      "name": "hasMinted",
      "outputs": [
        {
          "internalType": "bool",
          "name": "",
          "type": "bool"
        }
      ],
      "stateMutability": "view",
      "type": "function",
      "constant": true
    },
    {
      "inputs": [
        {
          "internalType": "address",
          "name": "owner",
          "type": "address"
        },
        {
          "internalType": "address",
          "name": "operator",
          "type": "address"
        }
      ],
      "name": "isApprovedForAll",
      "outputs": [
        {
          "internalType": "bool",
          "name": "",
          "type": "bool"
        }
      ],
      "stateMutability": "view",
      "type": "function",
      "constant": true
    },
    {
      "inputs": [],
      "name": "maxMintAmount",
      "outputs": [
        {
          "internalType": "uint256",
          "name": "",
          "type": "uint256"
        }
      ],
      "stateMutability": "view",
      "type": "function",
      "constant": true
    },
    {
      "inputs": [],
      "name": "maxSupply",
      "outputs": [
        {
          "internalType": "uint256",
          "name": "",
          "type": "uint256"
        }
      ],
      "stateMutability": "view",
      "type": "function",
      "constant": true
    },
    {
      "inputs": [],
      "name": "name",
      "outputs": [
        {
          "internalType": "string",
          "name": "",
          "type": "string"
        }
      ],
      "stateMutability": "view",
      "type": "function",
      "constant": true
    },
    {
      "inputs": [],
      "name": "owner",
      "outputs": [
        {
          "internalType": "address",
          "name": "",
          "type": "address"
        }
      ],
      "stateMutability": "view",
      "type": "function",
      "constant": true
    },
    {
      "inputs": [
        {
          "internalType": "uint256",
          "name": "tokenId",
          "type": "uint256"
        }
      ],
      "name": "ownerOf",
      "outputs": [
        {
          "internalType": "address",
          "name": "",
          "type": "address"
        }
      ],
      "stateMutability": "view",
      "type": "function",
      "constant": true
    },
    {
      "inputs": [],
      "name": "paused",
      "outputs": [
        {
          "internalType": "bool",
          "name": "",
          "type": "bool"
        }
      ],
      "stateMutability": "view",
      "type": "function",
      "constant": true
    },
    {
      "inputs": [],
      "name": "renounceOwnership",
      "outputs": [],
      "stateMutability": "nonpayable",
      "type": "function"
    },
    {
      "inputs": [
        {
          "internalType": "address",
          "name": "from",
          "type": "address"
        },
        {
          "internalType": "address",
          "name": "to",
          "type": "address"
        },
        {
          "internalType": "uint256",
          "name": "tokenId",
          "type": "uint256"
        }
      ],
      "name": "safeTransferFrom",
      "outputs": [],
      "stateMutability": "nonpayable",
      "type": "function"
    },
    {
      "inputs": [
        {
          "internalType": "address",
          "name": "from",
          "type": "address"
        },
        {
          "internalType": "address",
          "name": "to",
          "type": "address"
        },
        {
          "internalType": "uint256",
          "name": "tokenId",
          "type": "uint256"
        },
        {
          "internalType": "bytes",
          "name": "_data",
          "type": "bytes"
        }
      ],
      "name": "safeTransferFrom",
      "outputs": [],
      "stateMutability": "nonpayable",
      "type": "function"
    },
    {
      "inputs": [
        {
          "internalType": "address",
          "name": "operator",
          "type": "address"
        },
        {
          "internalType": "bool",
          "name": "approved",
          "type": "bool"
        }
      ],
      "name": "setApprovalForAll",
      "outputs": [],
      "stateMutability": "nonpayable",
      "type": "function"
    },
    {
      "inputs": [
        {
          "internalType": "bytes4",
          "name": "interfaceId",
          "type": "bytes4"
        }
      ],
      "name": "supportsInterface",
      "outputs": [
        {
          "internalType": "bool",
          "name": "",
          "type": "bool"
        }
      ],
      "stateMutability": "view",
      "type": "function",
      "constant": true
    },
    {
      "inputs": [],
      "name": "symbol",
      "outputs": [
        {
          "internalType": "string",
          "name": "",
          "type": "string"
        }
      ],
      "stateMutability": "view",
      "type": "function",
      "constant": true
    },
    {
      "inputs": [
        {
          "internalType": "uint256",
          "name": "index",
          "type": "uint256"
        }
      ],
      "name": "tokenByIndex",
      "outputs": [
        {
          "internalType": "uint256",
          "name": "",
          "type": "uint256"
        }
      ],
      "stateMutability": "view",
      "type": "function",
      "constant": true
    },
    {
      "inputs": [
        {
          "internalType": "address",
          "name": "owner",
          "type": "address"
        },
        {
          "internalType": "uint256",
          "name": "index",
          "type": "uint256"
        }
      ],
      "name": "tokenOfOwnerByIndex",
      "outputs": [
        {
          "internalType": "uint256",
          "name": "",
          "type": "uint256"
        }
      ],
      "stateMutability": "view",
      "type": "function",
      "constant": true
    },
    {
      "inputs": [],
      "name": "totalSupply",
      "outputs": [
        {
          "internalType": "uint256",
          "name": "",
          "type": "uint256"
        }
      ],
      "stateMutability": "view",
      "type": "function",
      "constant": true
    },
    {
      "inputs": [
        {
          "internalType": "address",
          "name": "from",
          "type": "address"
        },
        {
          "internalType": "address",
          "name": "to",
          "type": "address"
        },
        {
          "internalType": "uint256",
          "name": "tokenId",
          "type": "uint256"
        }
      ],
      "name": "transferFrom",
      "outputs": [],
      "stateMutability": "nonpayable",
      "type": "function"
    },
    {
      "inputs": [
        {
          "internalType": "address",
          "name": "newOwner",
          "type": "address"
        }
      ],
      "name": "transferOwnership",
      "outputs": [],
      "stateMutability": "nonpayable",
      "type": "function"
    },
    {
      "inputs": [
        {
          "internalType": "address",
          "name": "",
          "type": "address"
        }
      ],
      "name": "whitelisted",
      "outputs": [
        {
          "internalType": "bool",
          "name": "",
          "type": "bool"
        }
      ],
      "stateMutability": "view",
      "type": "function",
      "constant": true
    },
    {
      "inputs": [
        {
          "internalType": "address",
          "name": "_to",
          "type": "address"
        }
      ],
      "name": "mint",
      "outputs": [],
      "stateMutability": "payable",
      "type": "function",
      "payable": true
    },
    {
      "inputs": [
        {
          "internalType": "address",
          "name": "_owner",
          "type": "address"
        }
      ],
      "name": "walletOfOwner",
      "outputs": [
        {
          "internalType": "uint256[]",
          "name": "",
          "type": "uint256[]"
        }
      ],
      "stateMutability": "view",
      "type": "function",
      "constant": true
    },
    {
      "inputs": [
        {
          "internalType": "uint256",
          "name": "tokenId",
          "type": "uint256"
        }
      ],
      "name": "tokenURI",
      "outputs": [
        {
          "internalType": "string",
          "name": "",
          "type": "string"
        }
      ],
      "stateMutability": "view",
      "type": "function",
      "constant": true
    },
    {
      "inputs": [
        {
          "internalType": "address",
          "name": "_spooKeyAddress",
          "type": "address"
        }
      ],
      "name": "setSpookeyAddress",
      "outputs": [],
      "stateMutability": "nonpayable",
      "type": "function"
    },
    {
      "inputs": [
        {
          "internalType": "uint256",
          "name": "_newCost",
          "type": "uint256"
        }
      ],
      "name": "setCost",
      "outputs": [],
      "stateMutability": "nonpayable",
      "type": "function"
    },
    {
      "inputs": [
        {
          "internalType": "string",
          "name": "_newBaseURI",
          "type": "string"
        }
      ],
      "name": "setBaseURI",
      "outputs": [],
      "stateMutability": "nonpayable",
      "type": "function"
    },
    {
      "inputs": [
        {
          "internalType": "string",
          "name": "_newBaseExtension",
          "type": "string"
        }
      ],
      "name": "setBaseExtension",
      "outputs": [],
      "stateMutability": "nonpayable",
      "type": "function"
    },
    {
      "inputs": [
        {
          "internalType": "bool",
          "name": "_state",
          "type": "bool"
        }
      ],
      "name": "pause",
      "outputs": [],
      "stateMutability": "nonpayable",
      "type": "function"
    },
    {
      "inputs": [
        {
          "internalType": "uint256",
          "name": "_newMaxSupply",
          "type": "uint256"
        }
      ],
      "name": "increaseMaxSupply",
      "outputs": [],
      "stateMutability": "nonpayable",
      "type": "function"
    },
    {
      "inputs": [
        {
          "internalType": "uint256",
          "name": "_newMaxMintAmount",
          "type": "uint256"
        }
      ],
      "name": "setMaxMintAmount",
      "outputs": [],
      "stateMutability": "nonpayable",
      "type": "function"
    },
    {
      "inputs": [],
      "name": "withdraw",
      "outputs": [],
      "stateMutability": "payable",
      "type": "function",
      "payable": true
    }
  ],
  "bytecode": "0x60c0604052601f60808190527f697066733a2f2f3c494e534552542049504653204841534820484552453e2f0060a09081526200004091600b919062000176565b5060408051808201909152600580825264173539b7b760d91b60209092019182526200006f91600c9162000176565b5066b1a2bc2ec50000600d556103e8600e55600f805460ff1916905560016010553480156200009d57600080fd5b50604080518082018252600681526553706f6f6b7360d01b60208083019182528351808501909452600384526253504b60e81b908401528151919291620000e79160009162000176565b508051620000fd90600190602084019062000176565b5050506200011a620001146200012060201b60201c565b62000124565b62000259565b3390565b600a80546001600160a01b038381166001600160a01b0319831681179093556040519116919082907f8be0079c531659141344cd1fd0a4f28419497f9722a3daafe3b4186f6b6457e090600090a35050565b82805462000184906200021c565b90600052602060002090601f016020900481019282620001a85760008555620001f3565b82601f10620001c357805160ff1916838001178555620001f3565b82800160010185558215620001f3579182015b82811115620001f3578251825591602001919060010190620001d6565b506200020192915062000205565b5090565b5b8082111562000201576000815560010162000206565b600181811c908216806200023157607f821691505b602082108114156200025357634e487b7160e01b600052602260045260246000fd5b50919050565b612c4d80620002696000396000f3fe60806040526004361061026a5760003560e01c80635c975abb11610153578063a22cb465116100cb578063d936547e1161007f578063e97bdcf411610064578063e97bdcf414610699578063e985e9c5146106b9578063f2fde38b1461070257600080fd5b8063d936547e14610649578063da3ef23f1461067957600080fd5b8063c6682862116100b0578063c6682862146105fe578063c87b56dd14610613578063d5abeb011461063357600080fd5b8063a22cb465146105be578063b88d4fde146105de57600080fd5b806370a08231116101225780638da5cb5b116101075780638da5cb5b1461056b57806390edbfee1461058957806395d89b41146105a957600080fd5b806370a0823114610536578063715018a61461055657600080fd5b80635c975abb146104d45780636352211e146104ee5780636a6278421461050e5780636c0360eb1461052157600080fd5b806323b872dd116101e657806342842e0e116101b557806344a0d68a1161019a57806344a0d68a146104745780634f6ccce71461049457806355f804b3146104b457600080fd5b806342842e0e14610427578063438b63001461044757600080fd5b806323b872dd146103af5780632f745c59146103cf57806338e21cce146103ef5780633ccfd60b1461041f57600080fd5b8063088a4ed01161023d57806313faede61161022257806313faede61461036057806318160ddd14610384578063239c70ae1461039957600080fd5b8063088a4ed014610320578063095ea7b31461034057600080fd5b806301ffc9a71461026f57806302329a29146102a457806306fdde03146102c6578063081812fc146102e8575b600080fd5b34801561027b57600080fd5b5061028f61028a366004612567565b610722565b60405190151581526020015b60405180910390f35b3480156102b057600080fd5b506102c46102bf366004612592565b61077e565b005b3480156102d257600080fd5b506102db6107f0565b60405161029b9190612625565b3480156102f457600080fd5b50610308610303366004612638565b610882565b6040516001600160a01b03909116815260200161029b565b34801561032c57600080fd5b506102c461033b366004612638565b610928565b34801561034c57600080fd5b506102c461035b36600461266d565b610987565b34801561036c57600080fd5b50610376600d5481565b60405190815260200161029b565b34801561039057600080fd5b50600854610376565b3480156103a557600080fd5b5061037660105481565b3480156103bb57600080fd5b506102c46103ca366004612697565b610ab9565b3480156103db57600080fd5b506103766103ea36600461266d565b610b40565b3480156103fb57600080fd5b5061028f61040a3660046126d3565b60136020526000908152604090205460ff1681565b6102c4610be8565b34801561043357600080fd5b506102c4610442366004612697565b610cb6565b34801561045357600080fd5b506104676104623660046126d3565b610cd1565b60405161029b91906126ee565b34801561048057600080fd5b506102c461048f366004612638565b610d73565b3480156104a057600080fd5b506103766104af366004612638565b610dd2565b3480156104c057600080fd5b506102c46104cf3660046127f5565b610e76565b3480156104e057600080fd5b50600f5461028f9060ff1681565b3480156104fa57600080fd5b50610308610509366004612638565b610ee7565b6102c461051c3660046126d3565b610f72565b34801561052d57600080fd5b506102db6110dc565b34801561054257600080fd5b506103766105513660046126d3565b61116a565b34801561056257600080fd5b506102c4611204565b34801561057757600080fd5b50600a546001600160a01b0316610308565b34801561059557600080fd5b506102c46105a4366004612638565b61126a565b3480156105b557600080fd5b506102db611340565b3480156105ca57600080fd5b506102c46105d936600461283e565b61134f565b3480156105ea57600080fd5b506102c46105f9366004612875565b611414565b34801561060a57600080fd5b506102db6114a2565b34801561061f57600080fd5b506102db61062e366004612638565b6114af565b34801561063f57600080fd5b50610376600e5481565b34801561065557600080fd5b5061028f6106643660046126d3565b60126020526000908152604090205460ff1681565b34801561068557600080fd5b506102c46106943660046127f5565b61161e565b3480156106a557600080fd5b506102c46106b43660046126d3565b61168b565b3480156106c557600080fd5b5061028f6106d43660046128f1565b6001600160a01b03918216600090815260056020908152604080832093909416825291909152205460ff1690565b34801561070e57600080fd5b506102c461071d3660046126d3565b61171f565b60007fffffffff0000000000000000000000000000000000000000000000000000000082167f780e9d630000000000000000000000000000000000000000000000000000000014806107785750610778826117fe565b92915050565b600a546001600160a01b031633146107dd5760405162461bcd60e51b815260206004820181905260248201527f4f776e61626c653a2063616c6c6572206973206e6f7420746865206f776e657260448201526064015b60405180910390fd5b600f805460ff1916911515919091179055565b6060600080546107ff90612924565b80601f016020809104026020016040519081016040528092919081815260200182805461082b90612924565b80156108785780601f1061084d57610100808354040283529160200191610878565b820191906000526020600020905b81548152906001019060200180831161085b57829003601f168201915b5050505050905090565b6000818152600260205260408120546001600160a01b031661090c5760405162461bcd60e51b815260206004820152602c60248201527f4552433732313a20617070726f76656420717565727920666f72206e6f6e657860448201527f697374656e7420746f6b656e000000000000000000000000000000000000000060648201526084016107d4565b506000908152600460205260409020546001600160a01b031690565b600a546001600160a01b031633146109825760405162461bcd60e51b815260206004820181905260248201527f4f776e61626c653a2063616c6c6572206973206e6f7420746865206f776e657260448201526064016107d4565b601055565b600061099282610ee7565b9050806001600160a01b0316836001600160a01b03161415610a1c5760405162461bcd60e51b815260206004820152602160248201527f4552433732313a20617070726f76616c20746f2063757272656e74206f776e6560448201527f720000000000000000000000000000000000000000000000000000000000000060648201526084016107d4565b336001600160a01b0382161480610a385750610a3881336106d4565b610aaa5760405162461bcd60e51b815260206004820152603860248201527f4552433732313a20617070726f76652063616c6c6572206973206e6f74206f7760448201527f6e6572206e6f7220617070726f76656420666f7220616c6c000000000000000060648201526084016107d4565b610ab483836118e1565b505050565b610ac33382611967565b610b355760405162461bcd60e51b815260206004820152603160248201527f4552433732313a207472616e736665722063616c6c6572206973206e6f74206f60448201527f776e6572206e6f7220617070726f76656400000000000000000000000000000060648201526084016107d4565b610ab4838383611a6f565b6000610b4b8361116a565b8210610bbf5760405162461bcd60e51b815260206004820152602b60248201527f455243373231456e756d657261626c653a206f776e657220696e646578206f7560448201527f74206f6620626f756e647300000000000000000000000000000000000000000060648201526084016107d4565b506001600160a01b03919091166000908152600660209081526040808320938352929052205490565b600a546001600160a01b03163314610c425760405162461bcd60e51b815260206004820181905260248201527f4f776e61626c653a2063616c6c6572206973206e6f7420746865206f776e657260448201526064016107d4565b6000610c56600a546001600160a01b031690565b6001600160a01b03164760405160006040518083038185875af1925050503d8060008114610ca0576040519150601f19603f3d011682016040523d82523d6000602084013e610ca5565b606091505b5050905080610cb357600080fd5b50565b610ab483838360405180602001604052806000815250611414565b60606000610cde8361116a565b905060008167ffffffffffffffff811115610cfb57610cfb612732565b604051908082528060200260200182016040528015610d24578160200160208202803683370190505b50905060005b82811015610d6b57610d3c8582610b40565b828281518110610d4e57610d4e612978565b602090810291909101015280610d63816129d6565b915050610d2a565b509392505050565b600a546001600160a01b03163314610dcd5760405162461bcd60e51b815260206004820181905260248201527f4f776e61626c653a2063616c6c6572206973206e6f7420746865206f776e657260448201526064016107d4565b600d55565b6000610ddd60085490565b8210610e515760405162461bcd60e51b815260206004820152602c60248201527f455243373231456e756d657261626c653a20676c6f62616c20696e646578206f60448201527f7574206f6620626f756e6473000000000000000000000000000000000000000060648201526084016107d4565b60088281548110610e6457610e64612978565b90600052602060002001549050919050565b600a546001600160a01b03163314610ed05760405162461bcd60e51b815260206004820181905260248201527f4f776e61626c653a2063616c6c6572206973206e6f7420746865206f776e657260448201526064016107d4565b8051610ee390600b9060208401906124a0565b5050565b6000818152600260205260408120546001600160a01b0316806107785760405162461bcd60e51b815260206004820152602960248201527f4552433732313a206f776e657220717565727920666f72206e6f6e657869737460448201527f656e7420746f6b656e000000000000000000000000000000000000000000000060648201526084016107d4565b6000610f7d60085490565b600e54909150610f8e826001612a0f565b1115610f9957600080fd5b600a546001600160a01b0316331461108f57600f5460ff1615610fbb57600080fd5b6011546040517f555396990000000000000000000000000000000000000000000000000000000081526001600160a01b0384811660048301529091169063555396999060240160206040518083038186803b15801561101957600080fd5b505afa15801561102d573d6000803e3d6000fd5b505050506040513d601f19601f820116820180604052508101906110519190612a27565b61105a57600080fd5b600d5434101561106957600080fd5b6001600160a01b03821660009081526013602052604090205460ff161561108f57600080fd5b6110a38261109e836001612a0f565b611c5f565b600a546001600160a01b03163314610ee3576001600160a01b0382166000908152601360205260409020805460ff191660011790555050565b600b80546110e990612924565b80601f016020809104026020016040519081016040528092919081815260200182805461111590612924565b80156111625780601f1061113757610100808354040283529160200191611162565b820191906000526020600020905b81548152906001019060200180831161114557829003601f168201915b505050505081565b60006001600160a01b0382166111e85760405162461bcd60e51b815260206004820152602a60248201527f4552433732313a2062616c616e636520717565727920666f7220746865207a6560448201527f726f20616464726573730000000000000000000000000000000000000000000060648201526084016107d4565b506001600160a01b031660009081526003602052604090205490565b600a546001600160a01b0316331461125e5760405162461bcd60e51b815260206004820181905260248201527f4f776e61626c653a2063616c6c6572206973206e6f7420746865206f776e657260448201526064016107d4565b6112686000611c79565b565b600a546001600160a01b031633146112c45760405162461bcd60e51b815260206004820181905260248201527f4f776e61626c653a2063616c6c6572206973206e6f7420746865206f776e657260448201526064016107d4565b600e54811161133b5760405162461bcd60e51b815260206004820152603a60248201527f43616e206e6f74207365742061206e6577206d6178537570706c79206c6f776560448201527f72207468616e207468652070726576696f757320737570706c7900000000000060648201526084016107d4565b600e55565b6060600180546107ff90612924565b6001600160a01b0382163314156113a85760405162461bcd60e51b815260206004820152601960248201527f4552433732313a20617070726f766520746f2063616c6c65720000000000000060448201526064016107d4565b3360008181526005602090815260408083206001600160a01b03871680855290835292819020805460ff191686151590811790915590519081529192917f17307eab39ab6107e8899845ad3d59bd9653f200f220920489ca2b5937696c31910160405180910390a35050565b61141e3383611967565b6114905760405162461bcd60e51b815260206004820152603160248201527f4552433732313a207472616e736665722063616c6c6572206973206e6f74206f60448201527f776e6572206e6f7220617070726f76656400000000000000000000000000000060648201526084016107d4565b61149c84848484611ce3565b50505050565b600c80546110e990612924565b6000818152600260205260409020546060906001600160a01b031661153c5760405162461bcd60e51b815260206004820152602f60248201527f4552433732314d657461646174613a2055524920717565727920666f72206e6f60448201527f6e6578697374656e7420746f6b656e000000000000000000000000000000000060648201526084016107d4565b6000600b805461154b90612924565b80601f016020809104026020016040519081016040528092919081815260200182805461157790612924565b80156115c45780601f10611599576101008083540402835291602001916115c4565b820191906000526020600020905b8154815290600101906020018083116115a757829003601f168201915b5050505050905060008151116115e95760405180602001604052806000815250611617565b806115f384611d6c565b600c60405160200161160793929190612a44565b6040516020818303038152906040525b9392505050565b600a546001600160a01b031633146116785760405162461bcd60e51b815260206004820181905260248201527f4f776e61626c653a2063616c6c6572206973206e6f7420746865206f776e657260448201526064016107d4565b8051610ee390600c9060208401906124a0565b600a546001600160a01b031633146116e55760405162461bcd60e51b815260206004820181905260248201527f4f776e61626c653a2063616c6c6572206973206e6f7420746865206f776e657260448201526064016107d4565b601180547fffffffffffffffffffffffff0000000000000000000000000000000000000000166001600160a01b0392909216919091179055565b600a546001600160a01b031633146117795760405162461bcd60e51b815260206004820181905260248201527f4f776e61626c653a2063616c6c6572206973206e6f7420746865206f776e657260448201526064016107d4565b6001600160a01b0381166117f55760405162461bcd60e51b815260206004820152602660248201527f4f776e61626c653a206e6577206f776e657220697320746865207a65726f206160448201527f646472657373000000000000000000000000000000000000000000000000000060648201526084016107d4565b610cb381611c79565b60007fffffffff0000000000000000000000000000000000000000000000000000000082167f80ac58cd00000000000000000000000000000000000000000000000000000000148061189157507fffffffff0000000000000000000000000000000000000000000000000000000082167f5b5e139f00000000000000000000000000000000000000000000000000000000145b8061077857507f01ffc9a7000000000000000000000000000000000000000000000000000000007fffffffff00000000000000000000000000000000000000000000000000000000831614610778565b600081815260046020526040902080547fffffffffffffffffffffffff0000000000000000000000000000000000000000166001600160a01b038416908117909155819061192e82610ee7565b6001600160a01b03167f8c5be1e5ebec7d5bd14f71427d1e84f3dd0314c0f7b2291e5b200ac8c7c3b92560405160405180910390a45050565b6000818152600260205260408120546001600160a01b03166119f15760405162461bcd60e51b815260206004820152602c60248201527f4552433732313a206f70657261746f7220717565727920666f72206e6f6e657860448201527f697374656e7420746f6b656e000000000000000000000000000000000000000060648201526084016107d4565b60006119fc83610ee7565b9050806001600160a01b0316846001600160a01b03161480611a375750836001600160a01b0316611a2c84610882565b6001600160a01b0316145b80611a6757506001600160a01b0380821660009081526005602090815260408083209388168352929052205460ff165b949350505050565b826001600160a01b0316611a8282610ee7565b6001600160a01b031614611afe5760405162461bcd60e51b815260206004820152602960248201527f4552433732313a207472616e73666572206f6620746f6b656e2074686174206960448201527f73206e6f74206f776e000000000000000000000000000000000000000000000060648201526084016107d4565b6001600160a01b038216611b795760405162461bcd60e51b8152602060048201526024808201527f4552433732313a207472616e7366657220746f20746865207a65726f2061646460448201527f726573730000000000000000000000000000000000000000000000000000000060648201526084016107d4565b611b84838383611e9e565b611b8f6000826118e1565b6001600160a01b0383166000908152600360205260408120805460019290611bb8908490612b21565b90915550506001600160a01b0382166000908152600360205260408120805460019290611be6908490612a0f565b909155505060008181526002602052604080822080547fffffffffffffffffffffffff0000000000000000000000000000000000000000166001600160a01b0386811691821790925591518493918716917fddf252ad1be2c89b69c2b068fc378daa952ba7f163c4a11628f55a4df523b3ef91a4505050565b610ee3828260405180602001604052806000815250611f56565b600a80546001600160a01b038381167fffffffffffffffffffffffff0000000000000000000000000000000000000000831681179093556040519116919082907f8be0079c531659141344cd1fd0a4f28419497f9722a3daafe3b4186f6b6457e090600090a35050565b611cee848484611a6f565b611cfa84848484611fdf565b61149c5760405162461bcd60e51b815260206004820152603260248201527f4552433732313a207472616e7366657220746f206e6f6e20455243373231526560448201527f63656976657220696d706c656d656e746572000000000000000000000000000060648201526084016107d4565b606081611dac57505060408051808201909152600181527f3000000000000000000000000000000000000000000000000000000000000000602082015290565b8160005b8115611dd65780611dc0816129d6565b9150611dcf9050600a83612b67565b9150611db0565b60008167ffffffffffffffff811115611df157611df1612732565b6040519080825280601f01601f191660200182016040528015611e1b576020820181803683370190505b5090505b8415611a6757611e30600183612b21565b9150611e3d600a86612b7b565b611e48906030612a0f565b60f81b818381518110611e5d57611e5d612978565b60200101907effffffffffffffffffffffffffffffffffffffffffffffffffffffffffffff1916908160001a905350611e97600a86612b67565b9450611e1f565b6001600160a01b038316611ef957611ef481600880546000838152600960205260408120829055600182018355919091527ff3f7a9fe364faab93b216da50a3214154f22a0a2b415b23a84c8169e8b636ee30155565b611f1c565b816001600160a01b0316836001600160a01b031614611f1c57611f1c83826121aa565b6001600160a01b038216611f3357610ab481612247565b826001600160a01b0316826001600160a01b031614610ab457610ab482826122f6565b611f60838361233a565b611f6d6000848484611fdf565b610ab45760405162461bcd60e51b815260206004820152603260248201527f4552433732313a207472616e7366657220746f206e6f6e20455243373231526560448201527f63656976657220696d706c656d656e746572000000000000000000000000000060648201526084016107d4565b60006001600160a01b0384163b1561219f576040517f150b7a020000000000000000000000000000000000000000000000000000000081526001600160a01b0385169063150b7a029061203c903390899088908890600401612b8f565b602060405180830381600087803b15801561205657600080fd5b505af19250505080156120a4575060408051601f3d9081017fffffffffffffffffffffffffffffffffffffffffffffffffffffffffffffffe01682019092526120a191810190612bcb565b60015b612154573d8080156120d2576040519150601f19603f3d011682016040523d82523d6000602084013e6120d7565b606091505b50805161214c5760405162461bcd60e51b815260206004820152603260248201527f4552433732313a207472616e7366657220746f206e6f6e20455243373231526560448201527f63656976657220696d706c656d656e746572000000000000000000000000000060648201526084016107d4565b805181602001fd5b7fffffffff00000000000000000000000000000000000000000000000000000000167f150b7a0200000000000000000000000000000000000000000000000000000000149050611a67565b506001949350505050565b600060016121b78461116a565b6121c19190612b21565b600083815260076020526040902054909150808214612214576001600160a01b03841660009081526006602090815260408083208584528252808320548484528184208190558352600790915290208190555b5060009182526007602090815260408084208490556001600160a01b039094168352600681528383209183525290812055565b60085460009061225990600190612b21565b6000838152600960205260408120546008805493945090928490811061228157612281612978565b9060005260206000200154905080600883815481106122a2576122a2612978565b60009182526020808320909101929092558281526009909152604080822084905585825281205560088054806122da576122da612be8565b6001900381819060005260206000200160009055905550505050565b60006123018361116a565b6001600160a01b039093166000908152600660209081526040808320868452825280832085905593825260079052919091209190915550565b6001600160a01b0382166123905760405162461bcd60e51b815260206004820181905260248201527f4552433732313a206d696e7420746f20746865207a65726f206164647265737360448201526064016107d4565b6000818152600260205260409020546001600160a01b0316156123f55760405162461bcd60e51b815260206004820152601c60248201527f4552433732313a20746f6b656e20616c7265616479206d696e7465640000000060448201526064016107d4565b61240160008383611e9e565b6001600160a01b038216600090815260036020526040812080546001929061242a908490612a0f565b909155505060008181526002602052604080822080547fffffffffffffffffffffffff0000000000000000000000000000000000000000166001600160a01b03861690811790915590518392907fddf252ad1be2c89b69c2b068fc378daa952ba7f163c4a11628f55a4df523b3ef908290a45050565b8280546124ac90612924565b90600052602060002090601f0160209004810192826124ce5760008555612514565b82601f106124e757805160ff1916838001178555612514565b82800160010185558215612514579182015b828111156125145782518255916020019190600101906124f9565b50612520929150612524565b5090565b5b808211156125205760008155600101612525565b7fffffffff0000000000000000000000000000000000000000000000000000000081168114610cb357600080fd5b60006020828403121561257957600080fd5b813561161781612539565b8015158114610cb357600080fd5b6000602082840312156125a457600080fd5b813561161781612584565b60005b838110156125ca5781810151838201526020016125b2565b8381111561149c5750506000910152565b600081518084526125f38160208601602086016125af565b601f017fffffffffffffffffffffffffffffffffffffffffffffffffffffffffffffffe0169290920160200192915050565b60208152600061161760208301846125db565b60006020828403121561264a57600080fd5b5035919050565b80356001600160a01b038116811461266857600080fd5b919050565b6000806040838503121561268057600080fd5b61268983612651565b946020939093013593505050565b6000806000606084860312156126ac57600080fd5b6126b584612651565b92506126c360208501612651565b9150604084013590509250925092565b6000602082840312156126e557600080fd5b61161782612651565b6020808252825182820181905260009190848201906040850190845b818110156127265783518352928401929184019160010161270a565b50909695505050505050565b7f4e487b7100000000000000000000000000000000000000000000000000000000600052604160045260246000fd5b600067ffffffffffffffff8084111561277c5761277c612732565b604051601f85017fffffffffffffffffffffffffffffffffffffffffffffffffffffffffffffffe0908116603f011681019082821181831017156127c2576127c2612732565b816040528093508581528686860111156127db57600080fd5b858560208301376000602087830101525050509392505050565b60006020828403121561280757600080fd5b813567ffffffffffffffff81111561281e57600080fd5b8201601f8101841361282f57600080fd5b611a6784823560208401612761565b6000806040838503121561285157600080fd5b61285a83612651565b9150602083013561286a81612584565b809150509250929050565b6000806000806080858703121561288b57600080fd5b61289485612651565b93506128a260208601612651565b925060408501359150606085013567ffffffffffffffff8111156128c557600080fd5b8501601f810187136128d657600080fd5b6128e587823560208401612761565b91505092959194509250565b6000806040838503121561290457600080fd5b61290d83612651565b915061291b60208401612651565b90509250929050565b600181811c9082168061293857607f821691505b60208210811415612972577f4e487b7100000000000000000000000000000000000000000000000000000000600052602260045260246000fd5b50919050565b7f4e487b7100000000000000000000000000000000000000000000000000000000600052603260045260246000fd5b7f4e487b7100000000000000000000000000000000000000000000000000000000600052601160045260246000fd5b60007fffffffffffffffffffffffffffffffffffffffffffffffffffffffffffffffff821415612a0857612a086129a7565b5060010190565b60008219821115612a2257612a226129a7565b500190565b600060208284031215612a3957600080fd5b815161161781612584565b600084516020612a578285838a016125af565b855191840191612a6a8184848a016125af565b8554920191600090600181811c9080831680612a8757607f831692505b858310811415612abe577f4e487b710000000000000000000000000000000000000000000000000000000085526022600452602485fd5b808015612ad25760018114612ae357612b10565b60ff19851688528388019550612b10565b60008b81526020902060005b85811015612b085781548a820152908401908801612aef565b505083880195505b50939b9a5050505050505050505050565b600082821015612b3357612b336129a7565b500390565b7f4e487b7100000000000000000000000000000000000000000000000000000000600052601260045260246000fd5b600082612b7657612b76612b38565b500490565b600082612b8a57612b8a612b38565b500690565b60006001600160a01b03808716835280861660208401525083604083015260806060830152612bc160808301846125db565b9695505050505050565b600060208284031215612bdd57600080fd5b815161161781612539565b7f4e487b7100000000000000000000000000000000000000000000000000000000600052603160045260246000fdfea2646970667358221220537bb9028cbfc32b546e31e7476f95126eec7c5d57894939b6f2722d476bac9d64736f6c63430008090033",
  "immutableReferences": {},
  "source": "// SPDX-License-Identifier: MIT\n\npragma solidity ^0.8.9;\n\nimport \"@openzeppelin/contracts/token/ERC721/extensions/ERC721Enumerable.sol\";\nimport \"@openzeppelin/contracts/access/Ownable.sol\";\n\n\ninterface SpooKey {\n    function isKeyOwner(address _owner) external view returns (bool);\n}\n\ncontract Spooks is ERC721Enumerable, Ownable {\n    using Strings for uint256;\n\n    string public baseURI = \"ipfs://<INSERT IPFS HASH HERE>/\";  // need to uplaod collection to ipfs asap\n    string public baseExtension = \".json\";\n\n    uint256 public cost = 0.05 ether;\n    uint256 public maxSupply = 1000;\n    bool public paused = false;\n    uint256 public maxMintAmount = 1;\n\n    address spooKeyAddress;\n\n    mapping(address => bool) public whitelisted;\n    mapping(address => bool) public hasMinted;\n\n    constructor() ERC721(\"Spooks\", \"SPK\") {}\n\n    //internal functions\n    function _baseURI() internal view virtual override returns (string memory) {\n        return baseURI;\n    }\n\n\n    //public\n    function mint(address _to) public payable {\n        uint supply = totalSupply();\n        require(supply + 1 <= maxSupply);\n\n        if (msg.sender != owner()){\n            require(!paused);\n            require(SpooKey(spooKeyAddress).isKeyOwner(_to));\n            require(msg.value >= cost);\n            require(hasMinted[_to] == false);\n        }\n        _safeMint(_to, supply + 1);\n\n        if (msg.sender != owner()){\n            hasMinted[_to] = true;\n        }\n    }\n\n    // function mintMany(address _to, uint256 _mintAmount) public payable {\n    //     uint256 supply = totalSupply();\n    //     require(!paused, \"Contract is paused, contact owner to unpause it\");\n    //     require(supply + _mintAmount <= maxSupply, \"Minted amount would exceed maxSupply\");\n    //     require(_mintAmount <= maxMintAmount, \"Can not mint more than the maxMintAmount\");\n        \n    //     if (whitelisted[msg.sender] != false) {\n    //         require(_mintAmount <= maxWLMintAmount, \"White Listed address can not mint more than the maxWLMintAmount\");\n    //     }\n\n    //     if (msg.sender != owner()){\n    //         if (whitelisted[msg.sender] != true) {\n    //             require(msg.value >= cost * _mintAmount, \"Insufficient funds sent to transaction\");\n    //         }\n    //     }\n\n    //     for (uint256 i = 1; i <= _mintAmount; i++) {\n    //         _safeMint(_to, supply + i);\n    //     }\n    // }\n\n    function walletOfOwner(address _owner) public view returns (uint256[] memory){\n        uint256 ownerTokenCount = balanceOf(_owner);\n        uint256[] memory tokenIds = new uint256[](ownerTokenCount);\n        for (uint256 i; i < ownerTokenCount; i++) {\n            tokenIds[i] = tokenOfOwnerByIndex(_owner, i);\n        }\n        return tokenIds;\n    }\n\n    function tokenURI(uint256 tokenId) public view virtual override returns (string memory){\n        require(_exists(tokenId), \"ERC721Metadata: URI query for nonexistent token\");\n        string memory currentBaseURI = baseURI;\n        return bytes(currentBaseURI).length > 0\n            ? string(abi.encodePacked(currentBaseURI, tokenId.toString(), baseExtension))\n            : \"\";\n    }\n\n    //owner functions\n    function setSpookeyAddress(address _spooKeyAddress) public onlyOwner {\n       spooKeyAddress = _spooKeyAddress;\n    }\n\n    function setCost(uint256 _newCost) public onlyOwner {\n        cost = _newCost;\n    }\n\n    function setBaseURI(string memory _newBaseURI) public onlyOwner {\n        baseURI = _newBaseURI;\n    }\n\n    function setBaseExtension(string memory _newBaseExtension) public onlyOwner {\n        baseExtension = _newBaseExtension;\n    }\n\n    function pause(bool _state) public onlyOwner {\n        paused = _state;\n    }\n\n    function increaseMaxSupply(uint256 _newMaxSupply) public onlyOwner {\n        require(_newMaxSupply > maxSupply, \"Can not set a new maxSupply lower than the previous supply\");\n        maxSupply = _newMaxSupply;\n    }\n\n    function setMaxMintAmount(uint256 _newMaxMintAmount) public onlyOwner {\n        maxMintAmount = _newMaxMintAmount;\n    }\n\n\n\n    function withdraw() public payable onlyOwner {\n        (bool os, ) = payable(owner()).call{value: address(this).balance}(\"\");\n        require(os);\n    }\n\n}",
  "sourcePath": "/Users/manueles95/Desktop/NFT/ContractMachine/contracts/TDC/clients/Spooks.sol",
  "compiler": {
    "name": "solc",
    "version": "0.8.9+commit.e5eed63a.Emscripten.clang"
  },
  "schemaVersion": "3.4.3",
  "updatedAt": "2022-10-09T01:13:32.152Z",
  "networkType": "ethereum",
  "devdoc": {
    "kind": "dev",
    "methods": {
      "approve(address,uint256)": {
        "details": "See {IERC721-approve}."
      },
      "balanceOf(address)": {
        "details": "See {IERC721-balanceOf}."
      },
      "getApproved(uint256)": {
        "details": "See {IERC721-getApproved}."
      },
      "isApprovedForAll(address,address)": {
        "details": "See {IERC721-isApprovedForAll}."
      },
      "name()": {
        "details": "See {IERC721Metadata-name}."
      },
      "owner()": {
        "details": "Returns the address of the current owner."
      },
      "ownerOf(uint256)": {
        "details": "See {IERC721-ownerOf}."
      },
      "renounceOwnership()": {
        "details": "Leaves the contract without owner. It will not be possible to call `onlyOwner` functions anymore. Can only be called by the current owner. NOTE: Renouncing ownership will leave the contract without an owner, thereby removing any functionality that is only available to the owner."
      },
      "safeTransferFrom(address,address,uint256)": {
        "details": "See {IERC721-safeTransferFrom}."
      },
      "safeTransferFrom(address,address,uint256,bytes)": {
        "details": "See {IERC721-safeTransferFrom}."
      },
      "setApprovalForAll(address,bool)": {
        "details": "See {IERC721-setApprovalForAll}."
      },
      "supportsInterface(bytes4)": {
        "details": "See {IERC165-supportsInterface}."
      },
      "symbol()": {
        "details": "See {IERC721Metadata-symbol}."
      },
      "tokenByIndex(uint256)": {
        "details": "See {IERC721Enumerable-tokenByIndex}."
      },
      "tokenOfOwnerByIndex(address,uint256)": {
        "details": "See {IERC721Enumerable-tokenOfOwnerByIndex}."
      },
      "tokenURI(uint256)": {
        "details": "See {IERC721Metadata-tokenURI}."
      },
      "totalSupply()": {
        "details": "See {IERC721Enumerable-totalSupply}."
      },
      "transferFrom(address,address,uint256)": {
        "details": "See {IERC721-transferFrom}."
      },
      "transferOwnership(address)": {
        "details": "Transfers ownership of the contract to a new account (`newOwner`). Can only be called by the current owner."
      }
    },
    "version": 1
  },
  "userdoc": {
    "kind": "user",
    "methods": {},
    "version": 1
  }
}