{
  "contractName": "SpooKeys",
  "abi": [
    {
      "inputs": [],
      "stateMutability": "nonpayable",
      "type": "constructor"
    },
    {
      "anonymous": false,
      "inputs": [
        {
          "indexed": true,
          "internalType": "address",
          "name": "owner",
          "type": "address"
        },
        {
          "indexed": true,
          "internalType": "address",
          "name": "approved",
          "type": "address"
        },
        {
          "indexed": true,
          "internalType": "uint256",
          "name": "tokenId",
          "type": "uint256"
        }
      ],
      "name": "Approval",
      "type": "event"
    },
    {
      "anonymous": false,
      "inputs": [
        {
          "indexed": true,
          "internalType": "address",
          "name": "owner",
          "type": "address"
        },
        {
          "indexed": true,
          "internalType": "address",
          "name": "operator",
          "type": "address"
        },
        {
          "indexed": false,
          "internalType": "bool",
          "name": "approved",
          "type": "bool"
        }
      ],
      "name": "ApprovalForAll",
      "type": "event"
    },
    {
      "anonymous": false,
      "inputs": [
        {
          "indexed": true,
          "internalType": "address",
          "name": "previousOwner",
          "type": "address"
        },
        {
          "indexed": true,
          "internalType": "address",
          "name": "newOwner",
          "type": "address"
        }
      ],
      "name": "OwnershipTransferred",
      "type": "event"
    },
    {
      "anonymous": false,
      "inputs": [
        {
          "indexed": true,
          "internalType": "address",
          "name": "from",
          "type": "address"
        },
        {
          "indexed": true,
          "internalType": "address",
          "name": "to",
          "type": "address"
        },
        {
          "indexed": true,
          "internalType": "uint256",
          "name": "tokenId",
          "type": "uint256"
        }
      ],
      "name": "Transfer",
      "type": "event"
    },
    {
      "inputs": [
        {
          "internalType": "address",
          "name": "to",
          "type": "address"
        },
        {
          "internalType": "uint256",
          "name": "tokenId",
          "type": "uint256"
        }
      ],
      "name": "approve",
      "outputs": [],
      "stateMutability": "nonpayable",
      "type": "function"
    },
    {
      "inputs": [
        {
          "internalType": "address",
          "name": "owner",
          "type": "address"
        }
      ],
      "name": "balanceOf",
      "outputs": [
        {
          "internalType": "uint256",
          "name": "",
          "type": "uint256"
        }
      ],
      "stateMutability": "view",
      "type": "function",
      "constant": true
    },
    {
      "inputs": [],
      "name": "baseExtension",
      "outputs": [
        {
          "internalType": "string",
          "name": "",
          "type": "string"
        }
      ],
      "stateMutability": "view",
      "type": "function",
      "constant": true
    },
    {
      "inputs": [],
      "name": "baseURI",
      "outputs": [
        {
          "internalType": "string",
          "name": "",
          "type": "string"
        }
      ],
      "stateMutability": "view",
      "type": "function",
      "constant": true
    },
    {
      "inputs": [],
      "name": "cost",
      "outputs": [
        {
          "internalType": "uint256",
          "name": "",
          "type": "uint256"
        }
      ],
      "stateMutability": "view",
      "type": "function",
      "constant": true
    },
    {
      "inputs": [
        {
          "internalType": "uint256",
          "name": "tokenId",
          "type": "uint256"
        }
      ],
      "name": "getApproved",
      "outputs": [
        {
          "internalType": "address",
          "name": "",
          "type": "address"
        }
      ],
      "stateMutability": "view",
      "type": "function",
      "constant": true
    },
    {
      "inputs": [
        {
          "internalType": "address",
          "name": "",
          "type": "address"
        }
      ],
      "name": "hasMinted",
      "outputs": [
        {
          "internalType": "bool",
          "name": "",
          "type": "bool"
        }
      ],
      "stateMutability": "view",
      "type": "function",
      "constant": true
    },
    {
      "inputs": [
        {
          "internalType": "address",
          "name": "owner",
          "type": "address"
        },
        {
          "internalType": "address",
          "name": "operator",
          "type": "address"
        }
      ],
      "name": "isApprovedForAll",
      "outputs": [
        {
          "internalType": "bool",
          "name": "",
          "type": "bool"
        }
      ],
      "stateMutability": "view",
      "type": "function",
      "constant": true
    },
    {
      "inputs": [],
      "name": "maxSupply",
      "outputs": [
        {
          "internalType": "uint256",
          "name": "",
          "type": "uint256"
        }
      ],
      "stateMutability": "view",
      "type": "function",
      "constant": true
    },
    {
      "inputs": [],
      "name": "name",
      "outputs": [
        {
          "internalType": "string",
          "name": "",
          "type": "string"
        }
      ],
      "stateMutability": "view",
      "type": "function",
      "constant": true
    },
    {
      "inputs": [],
      "name": "owner",
      "outputs": [
        {
          "internalType": "address",
          "name": "",
          "type": "address"
        }
      ],
      "stateMutability": "view",
      "type": "function",
      "constant": true
    },
    {
      "inputs": [
        {
          "internalType": "uint256",
          "name": "tokenId",
          "type": "uint256"
        }
      ],
      "name": "ownerOf",
      "outputs": [
        {
          "internalType": "address",
          "name": "",
          "type": "address"
        }
      ],
      "stateMutability": "view",
      "type": "function",
      "constant": true
    },
    {
      "inputs": [],
      "name": "paused",
      "outputs": [
        {
          "internalType": "bool",
          "name": "",
          "type": "bool"
        }
      ],
      "stateMutability": "view",
      "type": "function",
      "constant": true
    },
    {
      "inputs": [],
      "name": "renounceOwnership",
      "outputs": [],
      "stateMutability": "nonpayable",
      "type": "function"
    },
    {
      "inputs": [
        {
          "internalType": "address",
          "name": "from",
          "type": "address"
        },
        {
          "internalType": "address",
          "name": "to",
          "type": "address"
        },
        {
          "internalType": "uint256",
          "name": "tokenId",
          "type": "uint256"
        }
      ],
      "name": "safeTransferFrom",
      "outputs": [],
      "stateMutability": "nonpayable",
      "type": "function"
    },
    {
      "inputs": [
        {
          "internalType": "address",
          "name": "from",
          "type": "address"
        },
        {
          "internalType": "address",
          "name": "to",
          "type": "address"
        },
        {
          "internalType": "uint256",
          "name": "tokenId",
          "type": "uint256"
        },
        {
          "internalType": "bytes",
          "name": "_data",
          "type": "bytes"
        }
      ],
      "name": "safeTransferFrom",
      "outputs": [],
      "stateMutability": "nonpayable",
      "type": "function"
    },
    {
      "inputs": [
        {
          "internalType": "address",
          "name": "operator",
          "type": "address"
        },
        {
          "internalType": "bool",
          "name": "approved",
          "type": "bool"
        }
      ],
      "name": "setApprovalForAll",
      "outputs": [],
      "stateMutability": "nonpayable",
      "type": "function"
    },
    {
      "inputs": [
        {
          "internalType": "bytes4",
          "name": "interfaceId",
          "type": "bytes4"
        }
      ],
      "name": "supportsInterface",
      "outputs": [
        {
          "internalType": "bool",
          "name": "",
          "type": "bool"
        }
      ],
      "stateMutability": "view",
      "type": "function",
      "constant": true
    },
    {
      "inputs": [],
      "name": "symbol",
      "outputs": [
        {
          "internalType": "string",
          "name": "",
          "type": "string"
        }
      ],
      "stateMutability": "view",
      "type": "function",
      "constant": true
    },
    {
      "inputs": [
        {
          "internalType": "uint256",
          "name": "index",
          "type": "uint256"
        }
      ],
      "name": "tokenByIndex",
      "outputs": [
        {
          "internalType": "uint256",
          "name": "",
          "type": "uint256"
        }
      ],
      "stateMutability": "view",
      "type": "function",
      "constant": true
    },
    {
      "inputs": [
        {
          "internalType": "address",
          "name": "owner",
          "type": "address"
        },
        {
          "internalType": "uint256",
          "name": "index",
          "type": "uint256"
        }
      ],
      "name": "tokenOfOwnerByIndex",
      "outputs": [
        {
          "internalType": "uint256",
          "name": "",
          "type": "uint256"
        }
      ],
      "stateMutability": "view",
      "type": "function",
      "constant": true
    },
    {
      "inputs": [],
      "name": "totalSupply",
      "outputs": [
        {
          "internalType": "uint256",
          "name": "",
          "type": "uint256"
        }
      ],
      "stateMutability": "view",
      "type": "function",
      "constant": true
    },
    {
      "inputs": [
        {
          "internalType": "address",
          "name": "from",
          "type": "address"
        },
        {
          "internalType": "address",
          "name": "to",
          "type": "address"
        },
        {
          "internalType": "uint256",
          "name": "tokenId",
          "type": "uint256"
        }
      ],
      "name": "transferFrom",
      "outputs": [],
      "stateMutability": "nonpayable",
      "type": "function"
    },
    {
      "inputs": [
        {
          "internalType": "address",
          "name": "newOwner",
          "type": "address"
        }
      ],
      "name": "transferOwnership",
      "outputs": [],
      "stateMutability": "nonpayable",
      "type": "function"
    },
    {
      "inputs": [
        {
          "internalType": "address",
          "name": "_owner",
          "type": "address"
        }
      ],
      "name": "isKeyOwner",
      "outputs": [
        {
          "internalType": "bool",
          "name": "",
          "type": "bool"
        }
      ],
      "stateMutability": "view",
      "type": "function",
      "constant": true
    },
    {
      "inputs": [
        {
          "internalType": "address",
          "name": "_to",
          "type": "address"
        }
      ],
      "name": "mint",
      "outputs": [],
      "stateMutability": "payable",
      "type": "function",
      "payable": true
    },
    {
      "inputs": [
        {
          "internalType": "address",
          "name": "_owner",
          "type": "address"
        }
      ],
      "name": "walletOfOwner",
      "outputs": [
        {
          "internalType": "uint256[]",
          "name": "",
          "type": "uint256[]"
        }
      ],
      "stateMutability": "view",
      "type": "function",
      "constant": true
    },
    {
      "inputs": [
        {
          "internalType": "uint256",
          "name": "tokenId",
          "type": "uint256"
        }
      ],
      "name": "tokenURI",
      "outputs": [
        {
          "internalType": "string",
          "name": "",
          "type": "string"
        }
      ],
      "stateMutability": "view",
      "type": "function",
      "constant": true
    },
    {
      "inputs": [
        {
          "internalType": "uint256",
          "name": "_newCost",
          "type": "uint256"
        }
      ],
      "name": "setCost",
      "outputs": [],
      "stateMutability": "nonpayable",
      "type": "function"
    },
    {
      "inputs": [
        {
          "internalType": "string",
          "name": "_newBaseURI",
          "type": "string"
        }
      ],
      "name": "setBaseURI",
      "outputs": [],
      "stateMutability": "nonpayable",
      "type": "function"
    },
    {
      "inputs": [
        {
          "internalType": "string",
          "name": "_newBaseExtension",
          "type": "string"
        }
      ],
      "name": "setBaseExtension",
      "outputs": [],
      "stateMutability": "nonpayable",
      "type": "function"
    },
    {
      "inputs": [
        {
          "internalType": "bool",
          "name": "_state",
          "type": "bool"
        }
      ],
      "name": "pause",
      "outputs": [],
      "stateMutability": "nonpayable",
      "type": "function"
    },
    {
      "inputs": [
        {
          "internalType": "uint256",
          "name": "_newMaxSupply",
          "type": "uint256"
        }
      ],
      "name": "increaseMaxSupply",
      "outputs": [],
      "stateMutability": "nonpayable",
      "type": "function"
    },
    {
      "inputs": [],
      "name": "withdraw",
      "outputs": [],
      "stateMutability": "payable",
      "type": "function",
      "payable": true
    }
  ],
  "bytecode": "0x60c0604052601f60808190527f697066733a2f2f3c494e534552542049504653204841534820484552453e2f0060a09081526200004091600b919062000173565b5060408051808201909152600580825264173539b7b760d91b60209092019182526200006f91600c9162000173565b506509184e72a000600d556103e8600e55600f805460ff191690553480156200009757600080fd5b50604080518082018252600881526753706f6f6b65797360c01b60208083019182528351808501909452600484526353504b5960e01b908401528151919291620000e49160009162000173565b508051620000fa90600190602084019062000173565b50505062000117620001116200011d60201b60201c565b62000121565b62000256565b3390565b600a80546001600160a01b038381166001600160a01b0319831681179093556040519116919082907f8be0079c531659141344cd1fd0a4f28419497f9722a3daafe3b4186f6b6457e090600090a35050565b828054620001819062000219565b90600052602060002090601f016020900481019282620001a55760008555620001f0565b82601f10620001c057805160ff1916838001178555620001f0565b82800160010185558215620001f0579182015b82811115620001f0578251825591602001919060010190620001d3565b50620001fe92915062000202565b5090565b5b80821115620001fe576000815560010162000203565b600181811c908216806200022e57607f821691505b602082108114156200025057634e487b7160e01b600052602260045260246000fd5b50919050565b612a0b80620002666000396000f3fe6080604052600436106102195760003560e01c80635c975abb1161011d57806395d89b41116100b0578063c87b56dd1161007f578063da3ef23f11610064578063da3ef23f146105e2578063e985e9c514610602578063f2fde38b1461064b57600080fd5b8063c87b56dd146105ac578063d5abeb01146105cc57600080fd5b806395d89b4114610542578063a22cb46514610557578063b88d4fde14610577578063c66828621461059757600080fd5b806370a08231116100ec57806370a08231146104cf578063715018a6146104ef5780638da5cb5b1461050457806390edbfee1461052257600080fd5b80635c975abb1461046d5780636352211e146104875780636a627842146104a75780636c0360eb146104ba57600080fd5b80632f745c59116101b0578063438b63001161017f5780634f6ccce7116101645780634f6ccce71461040d578063555396991461042d57806355f804b31461044d57600080fd5b8063438b6300146103c057806344a0d68a146103ed57600080fd5b80632f745c591461034857806338e21cce146103685780633ccfd60b1461039857806342842e0e146103a057600080fd5b8063095ea7b3116101ec578063095ea7b3146102cf57806313faede6146102ef57806318160ddd1461031357806323b872dd1461032857600080fd5b806301ffc9a71461021e57806302329a291461025357806306fdde0314610275578063081812fc14610297575b600080fd5b34801561022a57600080fd5b5061023e61023936600461234f565b61066b565b60405190151581526020015b60405180910390f35b34801561025f57600080fd5b5061027361026e366004612381565b6106c7565b005b34801561028157600080fd5b5061028a610739565b60405161024a9190612412565b3480156102a357600080fd5b506102b76102b2366004612425565b6107cb565b6040516001600160a01b03909116815260200161024a565b3480156102db57600080fd5b506102736102ea366004612455565b610871565b3480156102fb57600080fd5b50610305600d5481565b60405190815260200161024a565b34801561031f57600080fd5b50600854610305565b34801561033457600080fd5b5061027361034336600461247f565b6109a3565b34801561035457600080fd5b50610305610363366004612455565b610a2a565b34801561037457600080fd5b5061023e6103833660046124bb565b60106020526000908152604090205460ff1681565b610273610ad2565b3480156103ac57600080fd5b506102736103bb36600461247f565b610ba0565b3480156103cc57600080fd5b506103e06103db3660046124bb565b610bbb565b60405161024a91906124d6565b3480156103f957600080fd5b50610273610408366004612425565b610c5d565b34801561041957600080fd5b50610305610428366004612425565b610cbc565b34801561043957600080fd5b5061023e6104483660046124bb565b610d60565b34801561045957600080fd5b506102736104683660046125dd565b610d75565b34801561047957600080fd5b50600f5461023e9060ff1681565b34801561049357600080fd5b506102b76104a2366004612425565b610de6565b6102736104b53660046124bb565b610e71565b3480156104c657600080fd5b5061028a610f58565b3480156104db57600080fd5b506103056104ea3660046124bb565b610fe6565b3480156104fb57600080fd5b50610273611080565b34801561051057600080fd5b50600a546001600160a01b03166102b7565b34801561052e57600080fd5b5061027361053d366004612425565b6110e6565b34801561054e57600080fd5b5061028a6111bc565b34801561056357600080fd5b50610273610572366004612626565b6111cb565b34801561058357600080fd5b50610273610592366004612659565b611290565b3480156105a357600080fd5b5061028a61131e565b3480156105b857600080fd5b5061028a6105c7366004612425565b61132b565b3480156105d857600080fd5b50610305600e5481565b3480156105ee57600080fd5b506102736105fd3660046125dd565b61149a565b34801561060e57600080fd5b5061023e61061d3660046126d5565b6001600160a01b03918216600090815260056020908152604080832093909416825291909152205460ff1690565b34801561065757600080fd5b506102736106663660046124bb565b611507565b60007fffffffff0000000000000000000000000000000000000000000000000000000082167f780e9d630000000000000000000000000000000000000000000000000000000014806106c157506106c1826115e6565b92915050565b600a546001600160a01b031633146107265760405162461bcd60e51b815260206004820181905260248201527f4f776e61626c653a2063616c6c6572206973206e6f7420746865206f776e657260448201526064015b60405180910390fd5b600f805460ff1916911515919091179055565b606060008054610748906126ff565b80601f0160208091040260200160405190810160405280929190818152602001828054610774906126ff565b80156107c15780601f10610796576101008083540402835291602001916107c1565b820191906000526020600020905b8154815290600101906020018083116107a457829003601f168201915b5050505050905090565b6000818152600260205260408120546001600160a01b03166108555760405162461bcd60e51b815260206004820152602c60248201527f4552433732313a20617070726f76656420717565727920666f72206e6f6e657860448201527f697374656e7420746f6b656e0000000000000000000000000000000000000000606482015260840161071d565b506000908152600460205260409020546001600160a01b031690565b600061087c82610de6565b9050806001600160a01b0316836001600160a01b031614156109065760405162461bcd60e51b815260206004820152602160248201527f4552433732313a20617070726f76616c20746f2063757272656e74206f776e6560448201527f7200000000000000000000000000000000000000000000000000000000000000606482015260840161071d565b336001600160a01b03821614806109225750610922813361061d565b6109945760405162461bcd60e51b815260206004820152603860248201527f4552433732313a20617070726f76652063616c6c6572206973206e6f74206f7760448201527f6e6572206e6f7220617070726f76656420666f7220616c6c0000000000000000606482015260840161071d565b61099e83836116c9565b505050565b6109ad338261174f565b610a1f5760405162461bcd60e51b815260206004820152603160248201527f4552433732313a207472616e736665722063616c6c6572206973206e6f74206f60448201527f776e6572206e6f7220617070726f766564000000000000000000000000000000606482015260840161071d565b61099e838383611857565b6000610a3583610fe6565b8210610aa95760405162461bcd60e51b815260206004820152602b60248201527f455243373231456e756d657261626c653a206f776e657220696e646578206f7560448201527f74206f6620626f756e6473000000000000000000000000000000000000000000606482015260840161071d565b506001600160a01b03919091166000908152600660209081526040808320938352929052205490565b600a546001600160a01b03163314610b2c5760405162461bcd60e51b815260206004820181905260248201527f4f776e61626c653a2063616c6c6572206973206e6f7420746865206f776e6572604482015260640161071d565b6000610b40600a546001600160a01b031690565b6001600160a01b03164760405160006040518083038185875af1925050503d8060008114610b8a576040519150601f19603f3d011682016040523d82523d6000602084013e610b8f565b606091505b5050905080610b9d57600080fd5b50565b61099e83838360405180602001604052806000815250611290565b60606000610bc883610fe6565b905060008167ffffffffffffffff811115610be557610be561251a565b604051908082528060200260200182016040528015610c0e578160200160208202803683370190505b50905060005b82811015610c5557610c268582610a2a565b828281518110610c3857610c38612753565b602090810291909101015280610c4d816127b1565b915050610c14565b509392505050565b600a546001600160a01b03163314610cb75760405162461bcd60e51b815260206004820181905260248201527f4f776e61626c653a2063616c6c6572206973206e6f7420746865206f776e6572604482015260640161071d565b600d55565b6000610cc760085490565b8210610d3b5760405162461bcd60e51b815260206004820152602c60248201527f455243373231456e756d657261626c653a20676c6f62616c20696e646578206f60448201527f7574206f6620626f756e64730000000000000000000000000000000000000000606482015260840161071d565b60088281548110610d4e57610d4e612753565b90600052602060002001549050919050565b600080610d6c83610fe6565b15159392505050565b600a546001600160a01b03163314610dcf5760405162461bcd60e51b815260206004820181905260248201527f4f776e61626c653a2063616c6c6572206973206e6f7420746865206f776e6572604482015260640161071d565b8051610de290600b906020840190612288565b5050565b6000818152600260205260408120546001600160a01b0316806106c15760405162461bcd60e51b815260206004820152602960248201527f4552433732313a206f776e657220717565727920666f72206e6f6e657869737460448201527f656e7420746f6b656e0000000000000000000000000000000000000000000000606482015260840161071d565b6000610e7c60085490565b600e54909150610e8d8260016127ea565b1115610e9857600080fd5b600a546001600160a01b03163314610f0b57600f5460ff1615610eba57600080fd5b600d54341015610ec957600080fd5b6000610ed483610fe6565b905060008111610ee357600080fd5b6001600160a01b03831660009081526010602052604090205460ff1615610f0957600080fd5b505b610f1f82610f1a8360016127ea565b611a47565b600a546001600160a01b03163314610de2576001600160a01b0382166000908152601060205260409020805460ff191660011790555050565b600b8054610f65906126ff565b80601f0160208091040260200160405190810160405280929190818152602001828054610f91906126ff565b8015610fde5780601f10610fb357610100808354040283529160200191610fde565b820191906000526020600020905b815481529060010190602001808311610fc157829003601f168201915b505050505081565b60006001600160a01b0382166110645760405162461bcd60e51b815260206004820152602a60248201527f4552433732313a2062616c616e636520717565727920666f7220746865207a6560448201527f726f206164647265737300000000000000000000000000000000000000000000606482015260840161071d565b506001600160a01b031660009081526003602052604090205490565b600a546001600160a01b031633146110da5760405162461bcd60e51b815260206004820181905260248201527f4f776e61626c653a2063616c6c6572206973206e6f7420746865206f776e6572604482015260640161071d565b6110e46000611a61565b565b600a546001600160a01b031633146111405760405162461bcd60e51b815260206004820181905260248201527f4f776e61626c653a2063616c6c6572206973206e6f7420746865206f776e6572604482015260640161071d565b600e5481116111b75760405162461bcd60e51b815260206004820152603a60248201527f43616e206e6f74207365742061206e6577206d6178537570706c79206c6f776560448201527f72207468616e207468652070726576696f757320737570706c79000000000000606482015260840161071d565b600e55565b606060018054610748906126ff565b6001600160a01b0382163314156112245760405162461bcd60e51b815260206004820152601960248201527f4552433732313a20617070726f766520746f2063616c6c657200000000000000604482015260640161071d565b3360008181526005602090815260408083206001600160a01b03871680855290835292819020805460ff191686151590811790915590519081529192917f17307eab39ab6107e8899845ad3d59bd9653f200f220920489ca2b5937696c31910160405180910390a35050565b61129a338361174f565b61130c5760405162461bcd60e51b815260206004820152603160248201527f4552433732313a207472616e736665722063616c6c6572206973206e6f74206f60448201527f776e6572206e6f7220617070726f766564000000000000000000000000000000606482015260840161071d565b61131884848484611acb565b50505050565b600c8054610f65906126ff565b6000818152600260205260409020546060906001600160a01b03166113b85760405162461bcd60e51b815260206004820152602f60248201527f4552433732314d657461646174613a2055524920717565727920666f72206e6f60448201527f6e6578697374656e7420746f6b656e0000000000000000000000000000000000606482015260840161071d565b6000600b80546113c7906126ff565b80601f01602080910402602001604051908101604052809291908181526020018280546113f3906126ff565b80156114405780601f1061141557610100808354040283529160200191611440565b820191906000526020600020905b81548152906001019060200180831161142357829003601f168201915b5050505050905060008151116114655760405180602001604052806000815250611493565b8061146f84611b54565b600c60405160200161148393929190612802565b6040516020818303038152906040525b9392505050565b600a546001600160a01b031633146114f45760405162461bcd60e51b815260206004820181905260248201527f4f776e61626c653a2063616c6c6572206973206e6f7420746865206f776e6572604482015260640161071d565b8051610de290600c906020840190612288565b600a546001600160a01b031633146115615760405162461bcd60e51b815260206004820181905260248201527f4f776e61626c653a2063616c6c6572206973206e6f7420746865206f776e6572604482015260640161071d565b6001600160a01b0381166115dd5760405162461bcd60e51b815260206004820152602660248201527f4f776e61626c653a206e6577206f776e657220697320746865207a65726f206160448201527f6464726573730000000000000000000000000000000000000000000000000000606482015260840161071d565b610b9d81611a61565b60007fffffffff0000000000000000000000000000000000000000000000000000000082167f80ac58cd00000000000000000000000000000000000000000000000000000000148061167957507fffffffff0000000000000000000000000000000000000000000000000000000082167f5b5e139f00000000000000000000000000000000000000000000000000000000145b806106c157507f01ffc9a7000000000000000000000000000000000000000000000000000000007fffffffff000000000000000000000000000000000000000000000000000000008316146106c1565b600081815260046020526040902080547fffffffffffffffffffffffff0000000000000000000000000000000000000000166001600160a01b038416908117909155819061171682610de6565b6001600160a01b03167f8c5be1e5ebec7d5bd14f71427d1e84f3dd0314c0f7b2291e5b200ac8c7c3b92560405160405180910390a45050565b6000818152600260205260408120546001600160a01b03166117d95760405162461bcd60e51b815260206004820152602c60248201527f4552433732313a206f70657261746f7220717565727920666f72206e6f6e657860448201527f697374656e7420746f6b656e0000000000000000000000000000000000000000606482015260840161071d565b60006117e483610de6565b9050806001600160a01b0316846001600160a01b0316148061181f5750836001600160a01b0316611814846107cb565b6001600160a01b0316145b8061184f57506001600160a01b0380821660009081526005602090815260408083209388168352929052205460ff165b949350505050565b826001600160a01b031661186a82610de6565b6001600160a01b0316146118e65760405162461bcd60e51b815260206004820152602960248201527f4552433732313a207472616e73666572206f6620746f6b656e2074686174206960448201527f73206e6f74206f776e0000000000000000000000000000000000000000000000606482015260840161071d565b6001600160a01b0382166119615760405162461bcd60e51b8152602060048201526024808201527f4552433732313a207472616e7366657220746f20746865207a65726f2061646460448201527f7265737300000000000000000000000000000000000000000000000000000000606482015260840161071d565b61196c838383611c86565b6119776000826116c9565b6001600160a01b03831660009081526003602052604081208054600192906119a09084906128df565b90915550506001600160a01b03821660009081526003602052604081208054600192906119ce9084906127ea565b909155505060008181526002602052604080822080547fffffffffffffffffffffffff0000000000000000000000000000000000000000166001600160a01b0386811691821790925591518493918716917fddf252ad1be2c89b69c2b068fc378daa952ba7f163c4a11628f55a4df523b3ef91a4505050565b610de2828260405180602001604052806000815250611d3e565b600a80546001600160a01b038381167fffffffffffffffffffffffff0000000000000000000000000000000000000000831681179093556040519116919082907f8be0079c531659141344cd1fd0a4f28419497f9722a3daafe3b4186f6b6457e090600090a35050565b611ad6848484611857565b611ae284848484611dc7565b6113185760405162461bcd60e51b815260206004820152603260248201527f4552433732313a207472616e7366657220746f206e6f6e20455243373231526560448201527f63656976657220696d706c656d656e7465720000000000000000000000000000606482015260840161071d565b606081611b9457505060408051808201909152600181527f3000000000000000000000000000000000000000000000000000000000000000602082015290565b8160005b8115611bbe5780611ba8816127b1565b9150611bb79050600a83612925565b9150611b98565b60008167ffffffffffffffff811115611bd957611bd961251a565b6040519080825280601f01601f191660200182016040528015611c03576020820181803683370190505b5090505b841561184f57611c186001836128df565b9150611c25600a86612939565b611c309060306127ea565b60f81b818381518110611c4557611c45612753565b60200101907effffffffffffffffffffffffffffffffffffffffffffffffffffffffffffff1916908160001a905350611c7f600a86612925565b9450611c07565b6001600160a01b038316611ce157611cdc81600880546000838152600960205260408120829055600182018355919091527ff3f7a9fe364faab93b216da50a3214154f22a0a2b415b23a84c8169e8b636ee30155565b611d04565b816001600160a01b0316836001600160a01b031614611d0457611d048382611f92565b6001600160a01b038216611d1b5761099e8161202f565b826001600160a01b0316826001600160a01b03161461099e5761099e82826120de565b611d488383612122565b611d556000848484611dc7565b61099e5760405162461bcd60e51b815260206004820152603260248201527f4552433732313a207472616e7366657220746f206e6f6e20455243373231526560448201527f63656976657220696d706c656d656e7465720000000000000000000000000000606482015260840161071d565b60006001600160a01b0384163b15611f87576040517f150b7a020000000000000000000000000000000000000000000000000000000081526001600160a01b0385169063150b7a0290611e2490339089908890889060040161294d565b602060405180830381600087803b158015611e3e57600080fd5b505af1925050508015611e8c575060408051601f3d9081017fffffffffffffffffffffffffffffffffffffffffffffffffffffffffffffffe0168201909252611e8991810190612989565b60015b611f3c573d808015611eba576040519150601f19603f3d011682016040523d82523d6000602084013e611ebf565b606091505b508051611f345760405162461bcd60e51b815260206004820152603260248201527f4552433732313a207472616e7366657220746f206e6f6e20455243373231526560448201527f63656976657220696d706c656d656e7465720000000000000000000000000000606482015260840161071d565b805181602001fd5b7fffffffff00000000000000000000000000000000000000000000000000000000167f150b7a020000000000000000000000000000000000000000000000000000000014905061184f565b506001949350505050565b60006001611f9f84610fe6565b611fa991906128df565b600083815260076020526040902054909150808214611ffc576001600160a01b03841660009081526006602090815260408083208584528252808320548484528184208190558352600790915290208190555b5060009182526007602090815260408084208490556001600160a01b039094168352600681528383209183525290812055565b600854600090612041906001906128df565b6000838152600960205260408120546008805493945090928490811061206957612069612753565b90600052602060002001549050806008838154811061208a5761208a612753565b60009182526020808320909101929092558281526009909152604080822084905585825281205560088054806120c2576120c26129a6565b6001900381819060005260206000200160009055905550505050565b60006120e983610fe6565b6001600160a01b039093166000908152600660209081526040808320868452825280832085905593825260079052919091209190915550565b6001600160a01b0382166121785760405162461bcd60e51b815260206004820181905260248201527f4552433732313a206d696e7420746f20746865207a65726f2061646472657373604482015260640161071d565b6000818152600260205260409020546001600160a01b0316156121dd5760405162461bcd60e51b815260206004820152601c60248201527f4552433732313a20746f6b656e20616c7265616479206d696e74656400000000604482015260640161071d565b6121e960008383611c86565b6001600160a01b03821660009081526003602052604081208054600192906122129084906127ea565b909155505060008181526002602052604080822080547fffffffffffffffffffffffff0000000000000000000000000000000000000000166001600160a01b03861690811790915590518392907fddf252ad1be2c89b69c2b068fc378daa952ba7f163c4a11628f55a4df523b3ef908290a45050565b828054612294906126ff565b90600052602060002090601f0160209004810192826122b657600085556122fc565b82601f106122cf57805160ff19168380011785556122fc565b828001600101855582156122fc579182015b828111156122fc5782518255916020019190600101906122e1565b5061230892915061230c565b5090565b5b80821115612308576000815560010161230d565b7fffffffff0000000000000000000000000000000000000000000000000000000081168114610b9d57600080fd5b60006020828403121561236157600080fd5b813561149381612321565b8035801515811461237c57600080fd5b919050565b60006020828403121561239357600080fd5b6114938261236c565b60005b838110156123b757818101518382015260200161239f565b838111156113185750506000910152565b600081518084526123e081602086016020860161239c565b601f017fffffffffffffffffffffffffffffffffffffffffffffffffffffffffffffffe0169290920160200192915050565b60208152600061149360208301846123c8565b60006020828403121561243757600080fd5b5035919050565b80356001600160a01b038116811461237c57600080fd5b6000806040838503121561246857600080fd5b6124718361243e565b946020939093013593505050565b60008060006060848603121561249457600080fd5b61249d8461243e565b92506124ab6020850161243e565b9150604084013590509250925092565b6000602082840312156124cd57600080fd5b6114938261243e565b6020808252825182820181905260009190848201906040850190845b8181101561250e578351835292840192918401916001016124f2565b50909695505050505050565b7f4e487b7100000000000000000000000000000000000000000000000000000000600052604160045260246000fd5b600067ffffffffffffffff808411156125645761256461251a565b604051601f85017fffffffffffffffffffffffffffffffffffffffffffffffffffffffffffffffe0908116603f011681019082821181831017156125aa576125aa61251a565b816040528093508581528686860111156125c357600080fd5b858560208301376000602087830101525050509392505050565b6000602082840312156125ef57600080fd5b813567ffffffffffffffff81111561260657600080fd5b8201601f8101841361261757600080fd5b61184f84823560208401612549565b6000806040838503121561263957600080fd5b6126428361243e565b91506126506020840161236c565b90509250929050565b6000806000806080858703121561266f57600080fd5b6126788561243e565b93506126866020860161243e565b925060408501359150606085013567ffffffffffffffff8111156126a957600080fd5b8501601f810187136126ba57600080fd5b6126c987823560208401612549565b91505092959194509250565b600080604083850312156126e857600080fd5b6126f18361243e565b91506126506020840161243e565b600181811c9082168061271357607f821691505b6020821081141561274d577f4e487b7100000000000000000000000000000000000000000000000000000000600052602260045260246000fd5b50919050565b7f4e487b7100000000000000000000000000000000000000000000000000000000600052603260045260246000fd5b7f4e487b7100000000000000000000000000000000000000000000000000000000600052601160045260246000fd5b60007fffffffffffffffffffffffffffffffffffffffffffffffffffffffffffffffff8214156127e3576127e3612782565b5060010190565b600082198211156127fd576127fd612782565b500190565b6000845160206128158285838a0161239c565b8551918401916128288184848a0161239c565b8554920191600090600181811c908083168061284557607f831692505b85831081141561287c577f4e487b710000000000000000000000000000000000000000000000000000000085526022600452602485fd5b80801561289057600181146128a1576128ce565b60ff198516885283880195506128ce565b60008b81526020902060005b858110156128c65781548a8201529084019088016128ad565b505083880195505b50939b9a5050505050505050505050565b6000828210156128f1576128f1612782565b500390565b7f4e487b7100000000000000000000000000000000000000000000000000000000600052601260045260246000fd5b600082612934576129346128f6565b500490565b600082612948576129486128f6565b500690565b60006001600160a01b0380871683528086166020840152508360408301526080606083015261297f60808301846123c8565b9695505050505050565b60006020828403121561299b57600080fd5b815161149381612321565b7f4e487b7100000000000000000000000000000000000000000000000000000000600052603160045260246000fdfea2646970667358221220fed5c403c279e4517f73b7cdccdda0b3edba6bf49e78740abecbcf61231e75ff64736f6c63430008090033",
  "immutableReferences": {},
  "source": "// SPDX-License-Identifier: MIT\n\npragma solidity ^0.8.9;\n\nimport \"@openzeppelin/contracts/token/ERC721/extensions/ERC721Enumerable.sol\";\nimport \"@openzeppelin/contracts/access/Ownable.sol\";\n\n\ncontract SpooKeys is ERC721Enumerable, Ownable {\n    using Strings for uint256;\n\n    string public baseURI = \"ipfs://<INSERT IPFS HASH HERE>/\";\n    string public baseExtension = \".json\";\n\n    uint256 public cost = 0.00001 ether;\n    uint256 public maxSupply = 1000;\n    bool public paused = false;\n\n    mapping(address => bool) public hasMinted;\n\n    constructor() ERC721(\"Spookeys\", \"SPKY\") {}\n\n    //internal functions\n    function _baseURI() internal view virtual override returns (string memory) {\n        return baseURI;\n    }\n\n\n    function isKeyOwner(address _owner) external view returns (bool){ \n        uint256 ownerTokenCount = balanceOf(_owner);\n        bool hasKey = (ownerTokenCount > 0);\n        return hasKey;\n    }\n\n\n    //public\n    function mint(address _to) public payable {\n        uint supply = totalSupply();\n        require(supply + 1 <= maxSupply);\n\n        if (msg.sender != owner()){\n            require(!paused);\n            require(msg.value >= cost);\n            uint256 ownerTokenCount = balanceOf(_to);\n            require(ownerTokenCount > 0);\n            require(hasMinted[_to] == false);\n        }\n        _safeMint(_to, supply + 1);\n\n        if (msg.sender != owner()){\n            hasMinted[_to] = true;\n        }\n    }\n\n    // function mintMany(address _to, uint256 _mintAmount) public payable {\n    //     uint256 supply = totalSupply();\n    //     require(!paused, \"Contract is paused, contact owner to unpause it\");\n    //     require(supply + _mintAmount <= maxSupply, \"Minted amount would exceed maxSupply\");\n    //     require(_mintAmount <= maxMintAmount, \"Can not mint more than the maxMintAmount\");\n        \n    //     if (whitelisted[msg.sender] != false) {\n    //         require(_mintAmount <= maxWLMintAmount, \"White Listed address can not mint more than the maxWLMintAmount\");\n    //     }\n\n    //     if (msg.sender != owner()){\n    //         if (whitelisted[msg.sender] != true) {\n    //             require(msg.value >= cost * _mintAmount, \"Insufficient funds sent to transaction\");\n    //         }\n    //     }\n\n    //     for (uint256 i = 1; i <= _mintAmount; i++) {\n    //         _safeMint(_to, supply + i);\n    //     }\n    // }\n\n    function walletOfOwner(address _owner) public view returns (uint256[] memory){\n        uint256 ownerTokenCount = balanceOf(_owner);\n        uint256[] memory tokenIds = new uint256[](ownerTokenCount);\n        for (uint256 i; i < ownerTokenCount; i++) {\n            tokenIds[i] = tokenOfOwnerByIndex(_owner, i);\n        }\n        return tokenIds;\n    }\n\n    function tokenURI(uint256 tokenId) public view virtual override returns (string memory){\n        require(_exists(tokenId), \"ERC721Metadata: URI query for nonexistent token\");\n        string memory currentBaseURI = baseURI;\n        return bytes(currentBaseURI).length > 0\n            ? string(abi.encodePacked(currentBaseURI, tokenId.toString(), baseExtension))\n            : \"\";\n    }\n\n    //owner functions\n    function setCost(uint256 _newCost) public onlyOwner {\n        cost = _newCost;\n    }\n\n    function setBaseURI(string memory _newBaseURI) public onlyOwner {\n        baseURI = _newBaseURI;\n    }\n\n    function setBaseExtension(string memory _newBaseExtension) public onlyOwner {\n        baseExtension = _newBaseExtension;\n    }\n\n    function pause(bool _state) public onlyOwner {\n        paused = _state;\n    }\n\n    function increaseMaxSupply(uint256 _newMaxSupply) public onlyOwner {\n        require(_newMaxSupply > maxSupply, \"Can not set a new maxSupply lower than the previous supply\");\n        maxSupply = _newMaxSupply;\n    }\n\n    function withdraw() public payable onlyOwner {\n        (bool os, ) = payable(owner()).call{value: address(this).balance}(\"\");\n        require(os);\n    }\n\n}",
  "sourcePath": "/Users/manueles95/Desktop/NFT/ContractMachine/contracts/TDC/clients/SpooKeys.sol",
  "compiler": {
    "name": "solc",
    "version": "0.8.9+commit.e5eed63a.Emscripten.clang"
  },
  "schemaVersion": "3.4.3",
  "updatedAt": "2022-10-09T01:13:31.085Z",
  "networkType": "ethereum",
  "devdoc": {
    "kind": "dev",
    "methods": {
      "approve(address,uint256)": {
        "details": "See {IERC721-approve}."
      },
      "balanceOf(address)": {
        "details": "See {IERC721-balanceOf}."
      },
      "getApproved(uint256)": {
        "details": "See {IERC721-getApproved}."
      },
      "isApprovedForAll(address,address)": {
        "details": "See {IERC721-isApprovedForAll}."
      },
      "name()": {
        "details": "See {IERC721Metadata-name}."
      },
      "owner()": {
        "details": "Returns the address of the current owner."
      },
      "ownerOf(uint256)": {
        "details": "See {IERC721-ownerOf}."
      },
      "renounceOwnership()": {
        "details": "Leaves the contract without owner. It will not be possible to call `onlyOwner` functions anymore. Can only be called by the current owner. NOTE: Renouncing ownership will leave the contract without an owner, thereby removing any functionality that is only available to the owner."
      },
      "safeTransferFrom(address,address,uint256)": {
        "details": "See {IERC721-safeTransferFrom}."
      },
      "safeTransferFrom(address,address,uint256,bytes)": {
        "details": "See {IERC721-safeTransferFrom}."
      },
      "setApprovalForAll(address,bool)": {
        "details": "See {IERC721-setApprovalForAll}."
      },
      "supportsInterface(bytes4)": {
        "details": "See {IERC165-supportsInterface}."
      },
      "symbol()": {
        "details": "See {IERC721Metadata-symbol}."
      },
      "tokenByIndex(uint256)": {
        "details": "See {IERC721Enumerable-tokenByIndex}."
      },
      "tokenOfOwnerByIndex(address,uint256)": {
        "details": "See {IERC721Enumerable-tokenOfOwnerByIndex}."
      },
      "tokenURI(uint256)": {
        "details": "See {IERC721Metadata-tokenURI}."
      },
      "totalSupply()": {
        "details": "See {IERC721Enumerable-totalSupply}."
      },
      "transferFrom(address,address,uint256)": {
        "details": "See {IERC721-transferFrom}."
      },
      "transferOwnership(address)": {
        "details": "Transfers ownership of the contract to a new account (`newOwner`). Can only be called by the current owner."
      }
    },
    "version": 1
  },
  "userdoc": {
    "kind": "user",
    "methods": {},
    "version": 1
  }
}